:020000040800F2
:10000000882300200101000863280008A3130008CA
:10001000612800088D010008713800080000000008
:100020000000000000000000000000009D2A000801
:10003000030200080000000031290008D136000842
:100040001B0100081B0100081B0100081B01000820
:100050001B0100081B0100081B0100081B01000810
:100060001B0100081B0100081B0100081B01000800
:100070001B010008CD0100081B0100081B0100083E
:100080001B0100081B0100081B0100081B010008E0
:100090001B0100081B0100081B0100081B010008D0
:1000A0001B0100081B0100081B0100081B010008C0
:1000B0001B0100081B0100081B0100081B010008B0
:1000C0001B0100081B0100081B0100081B010008A0
:1000D0001B0100081B0100081B0100081B01000890
:1000E0001B0100081B0100081B010008DFF80CD0F1
:1000F00000F03AF800480047B13800088823002093
:100100000648804706480047FEE7FEE7FEE7FEE7B1
:10011000FEE7FEE7FEE7FEE7FEE7FEE7333700080F
:10012000ED000008202A04DB203A21FA02F0002129
:10013000704721FA02F3D040C2F1200291400843F7
:1001400019467047D2B201E000F8012B491EFBD2DC
:1001500070470022F6E710B513460A4604461946D2
:10016000FFF7F0FF204610BD064C074D06E0E068A3
:1001700040F0010394E8070098471034AC42F6D3EE
:10018000FFF7B8FFE03C0008003D0008FEE7000074
:1001900010B50D4C0421204600F0F2FB002812D1CE
:1001A000142000F033FA0421204600F0E9FB002877
:1001B00009D10421204600F0E3FB0028F9D0BDE876
:1001C000104003F0D9B910BD00080140014800F00B
:1001D0000DB90000241F002030B590F840500124D4
:1001E000AC40C56B6C60046863604368102B0368A7
:1001F00003D099600068C26030BD9A600068C16039
:1002000030BD704772B6FEE706490020C861064857
:10021000016941F004010161016941F0400101619E
:1002200070470000681F002000200240064A00219D
:10023000D16106490A6942F002020A61486108690F
:1002400040F0400008617047681F00200020024015
:10025000044B0022DA61044A136943F0010313617D
:1002600001807047681F00200020024014480022CF
:10027000C168CB06134904D5CA6942F00202CA61BB
:100280001022C3685B0705D5CB6943F00103CB613E
:1002900042F00402C369DB0707D0CB6943F00403D3
:1002A000CB61C16921F00101C161A2F58071013901
:1002B00001D0C2607047C16921F00101C16170477E
:1002C00000200240681F002070B5054600F05EFB6C
:1002D0000646114C09E0681C07D025B100F056FB1A
:1002E000801BA84201D9032070BDE068C007F2D18D
:1002F000E068800601D52020E060E068C00605D4F3
:10030000E069C00702D1E068400703D5FFF7AEFF00
:10031000012070BD002070BD002002402DE9F8438F
:1003200000250F4606462C4657F8240008B1641CE9
:10033000FAE7641E00F020FA304600F02DF88046FF
:1003400006EB840000F028F8124902460020C1F8AC
:1003500008800860A2EB0800012202EB9020C86030
:1003600069460C4800F064F940B90DE057F82520C3
:1003700000233146022000F0BFF918B100F0ACF9BB
:10038000BDE8F8836D1C361DA542EFDB00F0AAF92D
:100390000020F5E7540000200A4B10B500215A0454
:1003A00003EB8124844207D902EB8124844203D8E1
:1003B000880200F1006010BD491C8029F0DB4FF07D
:1003C000FF3010BD00040008064800F13401C26887
:1003D0000A6002694A6002788A604078C860024810
:1003E000FFF79CBF0000002000FC01082DE9F05F32
:1003F000C16B0C6801680B68D0F840C0042202FA97
:100400000CF2494DDFF824A1494E4A4FDFF828B1DC
:10041000DFF828E122422CD05A072AD50A68920632
:1004200003D40A6822F004020A600168A94201D1DB
:10043000042219E0514501D1402215E0B14202D118
:100440004FF4806210E0B94202D14FF480420BE0D9
:10045000594502D14FF4802206E0714502D14FF494
:10046000800201E04FF080622F4908394A60C16A7A
:100470003BE04FF0020808FA0CF818EA040F4FF0BE
:1004800000094FF0010235D05FEA837832D50B685E
:100490009B0605D40B6823F00A030B6080F821202B
:1004A0000168A94201D1022219E0514501D120225F
:1004B00015E0B14202D14FF4007210E0B94202D10E
:1004C0004FF400520BE0594502D14FF4003206E0E0
:1004D000714502D14FF4001201E04FF00072124951
:1004E00008394A6080F82090816A00291AD0BDE856
:1004F000F05F0847082505FA0CF5254212D01B07C6
:1005000010D50B6823F00E030B6090F84010C36BFE
:1005100002FA01F15960826380F8212080F820906E
:10052000016BE2E7BDE8F09F080002401C000240BA
:100530003000024044000240580002406C0002407B
:1005400030B528B308C8134914221944B1FBF2F19D
:100550008900C16310498163022141771A6843F61B
:10056000F0718A43D0E900142143D0E902452C43BD
:100570002143046921434469214384692143114390
:10058000196000214163012242770177084630BD9E
:10059000012030BDF8FFFDBF0000024070B50446E9
:1005A00090F82000002501280CD0012084F82000BC
:1005B00094F821600020012E06D084F82000022546
:1005C000284670BD022070BD022684F82160A06319
:1005D0002068066826F0010606602046FFF7FCFD4D
:1005E000E06A00282068016802D041F00E0106E0B0
:1005F00021F0040101602068016841F00A010160F6
:100600002068016841F001010160D9E770B5044636
:1006100000F0BCF90546601C02D004480078044490
:1006200000F0B4F9401BA042FAD370BD4400002092
:100630002DE9F047054626480F460126017E01298F
:100640000FD00121814601762868DFF888804CF2BE
:100650005034022808D0A2462046FFF735FEA8B144
:1006600031E00220BDE8F0872046FFF72DFE08BBF1
:100670000120FFF7C9FD2046FFF726FED8F810102D
:10068000064621F00401C8F810101CE04FF0FF30BE
:100690003860AC6811E02046FFF7C8FD5046FFF710
:1006A00013FED8F81010060021F00201C8F810104F
:1006B00001D03C6007E004F58064D5E9020100EB5D
:1006C0008120A042E7D8002189F818103046C9E7F8
:1006D000681F0020002002400148C06970470000E8
:1006E000681F00200348016941F08001016100207A
:1006F00070470000002002402DE9F05F07461C48CB
:1007000088460024017E15461E46012909D0012194
:10071000814601764CF2503A5046FFF7D5FD18B1AC
:1007200022E00220BDE8F09F012F02D0022F00D06E
:100730000427D346DFF83CA0220128463146FFF7C4
:10074000F1FC81B208EB4400FFF782FD5846FFF749
:10075000BBFDDAF8102022F00102CAF8102018B907
:10076000641CE4B2BC42E7D3002289F81820D9E720
:10077000681F002000200240064900200A69120676
:1007800007D5054A4A60054A4A600969090600D545
:10079000012070470020024023016745AB89EFCD5F
:1007A0002DE9F84FDFF8B891002409F1040A0AF1A5
:1007B000040B23460F270BF1040EC9E00125A540C9
:1007C0002A40AA427DD1674ED1F804C0ACEB06089E
:1007D000B44532D014DCBCF1030F3AD009DCBCF1D3
:1007E000000F2AD0BCF1010F1CD0BCF1020F31D197
:1007F0001DE0BCF1110F17D0BCF1120F2AD119E086
:10080000B8F5881F19D006DCB8F5803F15D0B8F5CB
:10081000801F1FD111E0B8F5001F0ED0B8F5041FDE
:1008200018D10AE0CB6815E0CB681B1D12E0CB683D
:1008300008330FE0CB680C330CE08B682BB1012B35
:100840004FF0080303D0456104E0042302E0056192
:1008500000E00023FF2A01D8064601E000F104066B
:100860004FEA840501D9A5F12005D6F8008007FAE2
:1008700005FC28EA0C0803FA05F548EA0508C6F85D
:1008800000804D68ED0062D5374DAE6946F0010637
:10089000AE61AD6924F0030605F001050095334D06
:1008A00006EB050CDCF80850A607360F07FA06F829
:1008B00025EA0805DFF8B880404503D14FF000086D
:1008C00017E044E0DFF8AC80404502D14FF001086A
:1008D0000FE0DFF8A480404502D14FF0020808E0A5
:1008E000DFF89880404502D14FF0030801E04FF057
:1008F000040808FA06F848EA0508CCF808804D68AC
:10090000D9F80060ED034D4601D5164300E096434B
:100910002E604D68DAF80060AD03554601D51643E8
:1009200000E096432E604D68DBF80060ED025D4606
:1009300001D5164300E096432E604D68DEF8006056
:10094000AD02754601D5164300E096432E60641C47
:100950000D682A46E5407FF431AFBDE8F88F00000E
:10096000000401400000111000100240000001408E
:1009700000080140000C014000100140001401403B
:100980008068084000D0012070470000014880685E
:10099000704700004400002002488168027811443A
:1009A0008160704744000020074810B5016841F09D
:1009B00010010160032000F075F8002000F006F837
:1009C00000F024F8002010BD0020024070B50D4D4D
:1009D00004464FF47A712878B1FBF0F00A490968AF
:1009E000B1FBF0F000F006FC48B9102C07D2002251
:1009F0002146501E00F036F800206C6070BD0120CA
:100A000070BD000044000020500000200C4808B5D4
:100A1000816941F001018161816901F00101009169
:100A2000C16941F08051C161C06900F080500090FF
:100A30000448416821F0E06141F00071416008BD67
:100A40000010024000000140002809DB00F01F02F6
:100A5000012191404009800000F1E020C0F8001120
:100A600070470000F0B40E4B1B680C46C3F3022322
:100A7000C3F10705042D00D90425191D072901D24A
:100A8000002300E0DB1E012606FA05F1491E214085
:100A900099409E40761E16403143F0BC02F0E9BEFC
:100AA0000CED00E0064900F0070208684FF6FF036E
:100AB000184040EA0220034A1043086070470000D3
:100AC0000CED00E00000FA052DE9F0470F460500A7
:100AD00061D0434E306800F00700B84209D2306858
:100AE00020F0070038433060306800F00700B8425B
:100AF00051D128683B4C810712D5400703D5606867
:100B000040F4E06060602878000703D5606840F436
:100B1000605060606068A96820F0F0000843606081
:100B20002878C00728D06868012810D021680228DA
:100B300010D0890700292EDA616821F003010143F2
:100B40006160FFF723FF804641F288390DE021689C
:100B50008903EFE78901EDE7FFF718FFA0EB080134
:100B6000494502D90320BDE8F0876068696800F054
:100B70000C00B0EB810FEFD1306800F00700B842F5
:100B80000BD9306820F0070038433060306800F03F
:100B90000700B84201D00120E5E72878400705D5D5
:100BA0006068E96820F4E060084360602878000726
:100BB00006D56068296920F4605040EAC100606091
:100BC00000F038F86168084AC1F30311515CC8406D
:100BD0000649086006480068FFF7F8FE0020C2E7F3
:100BE0000020024000100240C83C000850000020D5
:100BF000480000200448054900684968044AC1F3D8
:100C00000221515CC8407047500000200010024093
:100C1000D83C00080448054900684968044AC1F303
:100C2000C221515CC84070475000002000100240B3
:100C3000D83C000812A185B00FC98DE80F0014A0A0
:100C4000144A006804905168134801F00C03042B07
:100C500010D0082B0ED1C1F38343C9031DF8030044
:100C60000AD5516804AAC1F34041515C0A4A504375
:100C7000B0FBF1F005B0704708494843FAE70000BF
:100C800002030405060708090A0B0C0D0E0F1010CD
:100C9000010200000010024000127A0000093D002D
:100CA0002DE9F84F040070D02078C04DC00749D01E
:100CB0006868C0F38100012807D06868C0F381002C
:100CC000022809D16868C00306D52868800339D591
:100CD00060680028E7D035E06068B0F5803F0BD051
:100CE00010B1B0F5A02F11D0286820F48030286012
:100CF000286820F4802002E0286840F480302860D2
:100D0000606890B1FFF742FE06460AE0286840F4AA
:100D100080202860F0E700BFFFF738FE801B6428C2
:100D200073D828688003F7D50CE0FFF72FFE06463E
:100D300005E000BFFFF72AFE801B6428F0D8286872
:100D40008003F7D420789A4E80074FF001094FF0C6
:100D5000000839D5686810F00C0F07D06868C0F338
:100D60008100022809D16868C00306D4286880077A
:100D700014D52069012808D110E02069B0B1C6F867
:100D80000090FFF703FE074605E00AE1FFF7FEFDCE
:100D9000C01B0228C4D828688007F7D52868616975
:100DA00020F0F80040EAC10028600DE0C6F800809D
:100DB000FFF7ECFD074604E0FFF7E8FDC01B022843
:100DC00023D828688007F7D4207800072CD57948E5
:100DD000A169D9B1C0F80090FFF7D8FD074604E03B
:100DE000FFF7D4FDC01B02280FD8686A8007F7D52B
:100DF00071484FF4FA510068B0FBF1F0009000BF69
:100E00000098411E0091FAD20EE080E0C0F8008008
:100E1000FFF7BCFD074604E0FFF7B8FDC01B022842
:100E200075D8686A8007F7D42078400760D5E869EC
:100E30000027C00008D4E86940F08050E861E86904
:100E4000012700F0805000905C480168C90513D468
:100E50000168834641F480710160FFF797FD824687
:100E600006E000BFFFF792FDA0EB0A0064284ED811
:100E7000DBF80000C005F5D5E06801280AD008B10C
:100E8000052813D0286A20F001002862286A20F083
:100E9000040002E0286A40F001002862E06841F2A4
:100EA000883B98B1FFF772FD82460BE0286A40F05C
:100EB00004002862EEE700BFFFF768FDA0EB0A011F
:100EC00059455AD8286A8007F6D50CE0FFF75EFD31
:100ED000824605E0FFF75AFDA0EB0A0159454CD8C0
:100EE000286A8007F6D41FB1E86920F08050E861D5
:100EF000E06988B36968C1F38101022944D00228FE
:100F0000C6F8608004D0FFF741FD044638E034E0C5
:100F1000FFF73CFD074604E0FFF738FDC01B022841
:100F20002BD828688001F7D4206AB0F5803F05D11E
:100F30006868A16820F4003008436860D4E90801BB
:100F40000843696821F4741108436860C6F860902A
:100F5000FFF71CFD044606E025E000BFFFF716FD85
:100F6000001B022809D828688001F7D51BE000BFC4
:100F7000FFF70CFD001B022802D90320BDE8F88F03
:100F800028688001F4D40EE00128F7D06868226A4E
:100F900000F48031914204D1616A00F470108842FB
:100FA00001D00120EAE70020E8E70000001002403D
:100FB0000000424280044242500000200070004085
:100FC000704770B5040009D0606A002540B1256102
:100FD0006561A56294F8510040B10CE0012070BD3C
:100FE0006068B0F5827FF4D0E561F2E784F8505094
:100FF000204600F03FF8022084F851002068016884
:1010000021F040010160A088218900F4827001F480
:1010100004410843A18901F400610843217C01F0E7
:1010200002010843217D01F001010843218B01F4F5
:1010300000710843217F01F03801084394F8201023
:1010400001F080010843218D01F40051084321681B
:101050000860A069042101EA104021684860206806
:10106000C16921F40061C1616565012084F8510006
:10107000002070BD70B586B000250646009501952C
:101080000295039500681E49884236D11D4988693A
:1010900040F480508861886900F480500490886929
:1010A00040F0080088618869694600F008000490F3
:1010B0002820009002200190032003901248FFF79F
:1010C0006FFB1248416841F0E06141F0010141606D
:1010D000104C0F4820601020C4E901058020C4E9AD
:1010E00003052020C4E905502046E561FFF728FAF2
:1010F00008B1FFF787F8B464666206B070BD0000FF
:101100000030014000100240000C0140000001408E
:1011100030000240241F00202DE9F041044690F8E1
:1011200050000026012809D0012784F8507094F857
:1011300051000025012804D002264EE00220BDE81F
:10114000F08189B182B1032084F851006565216383
:10115000A286E286A56365642564A587E587A06805
:10116000B0F5004F02D00BE0012636E020680168A0
:1011700021F0400101602068016841F48041016074
:10118000A16C1848C862A16C17488862A16C174806
:101190000863A06C4563E38E2268216B0C32A06C5F
:1011A000FFF7FCF938B1606D40F010006065012672
:1011B00084F8517011E020680168490603D4016881
:1011C00041F0400101602068416841F02001416028
:1011D0002068416841F00201416084F85050304677
:1011E000ADE70000552900085F29000833290008F1
:1011F0007047704710B5401EB0F1807F01D30120C9
:1012000010BD4FF0E02460610F21601702F031FB48
:101210000020A06107202061002010BD70B50400EF
:1012200004D094F83900002510B106E0012070BD0B
:1012300084F83850204600F023F8242084F8390040
:101240002068C16821F40051C160204602F082FA92
:101250002068016921F4904101612068416921F011
:101260002A0141612068C16841F40051C160E56311
:10127000202084F8390084F83A00002070BD000076
:1012800030B585B000240094019402940394006862
:101290001449884224D11448816941F48041816114
:1012A000816901F480410491816941F00401816107
:1012B00080690E4D00F0040004904FF4007000901F
:1012C000022001900320039069462846FFF768FA40
:1012D0002815CDE90004694628460294FFF760FA14
:1012E00005B030BD00380140001002400008014048
:1012F0002DE9F843044690F839001F4616460D467E
:1013000020284CD1C5B1BEB194F83800012846D090
:10131000012084F838004FF00008C4F83C802120F8
:1013200084F83900FFF732FBA6848146E684A06882
:10133000B0F5805F03D004E00120BDE8F8832069A8
:1013400028B12E465FF0000584F838800EE00026B4
:10135000FAE78021204602F059FAA0B9AEB116F89A
:10136000010B21684860E08C401EE084E08C4B4615
:101370004FF0000200970028EBD14FF040012046CB
:1013800002F044FA30B10320D7E735F8020BC0F37E
:101390000800E6E7202084F839000020CDE702208D
:1013A000CBE7FEE730B50024094D0CE0E8684FF0CC
:1013B000000384421A4601D2FF2100E000212046AA
:1013C00002F01AF8641CA8688442EFD330BD000014
:1013D0000000002030B500240C4D13E0E868844282
:1013E00003D200231A46FF2108E029690844A042DD
:1013F00001D9FF2300E0002300221146204601F01E
:10140000FBFF641CA8688442E8D330BD00000020C4
:1014100038B50121032002F08DF9194C0023022177
:10142000E06800902278012001F03AFB0321084691
:1014300002F080F9D4E90330184400906278042166
:10144000032001F0F9FC0321084602F073F9D4E906
:1014500003301844009062780121022001F0ECFC76
:101460000421032002F066F9E36805211A1D01201A
:101470000B3301F0F7F9BDE83840FEF789BE0000F4
:101480000000002038B50121032002F053F9134C6D
:1014900000230221E06800902278032001F0CCFCB8
:1014A0000321084602F046F9D4E9033018440090BD
:1014B00062780121022001F0BFFC0421032002F028
:1014C00039F9E368052103F1090201200D3301F028
:1014D000C9F9BDE83840FEF75BBE000000000020FF
:1014E0003EB50121032002F025F91B4C0021022307
:1014F0002078E2688DE8070003220721012001F02F
:101500003DFB0221032002F015F9D4E90330184411
:10151000009062780321042001F08EFC032108462C
:1015200002F008F9D4E903301844009062780221EF
:10153000012001F081FC0421032002F0FBF8E368A4
:10154000042103F108020620143301F08BF9BDE8F1
:101550003E40FEF71DBE0000000000203EB5012108
:10156000032002F0E7F81D4C002105232078E268F3
:101570008DE8070004220321022001F0FFFA032175
:10158000084602F0D7F8D4E903010144CDE900018F
:10159000637803220221012001F0BAFC022103201A
:1015A00002F0C8F8D4E903010144CDE900016378F1
:1015B00003220221012001F0ABFC0421032002F0F0
:1015C000B9F8E368042103F108020620143301F09E
:1015D00049F9BDE83E40FEF7DBBD000000000020F9
:1015E0003EB50121032002F0A5F81D4C0021042383
:1015F0002078E2688DE8070003220221012001F033
:1016000069FD0321084602F095F8D4E9030101447D
:10161000CDE90001637806220521022001F078FC63
:101620000221032002F086F8D4E903010144CDE948
:101630000001637803220121042001F069FC0421E8
:10164000032002F077F8E368042103F10802062082
:10165000143301F007F9BDE83E40FEF799BD0000E4
:10166000000000203EB50121032002F063F81C4C6D
:1016700000230121E06800902278042001F0DCFBC7
:101680000421032002F056F8D4E903016278CDE981
:10169000002001440291052303220221012001F0D0
:1016A000F9FD0221032002F045F8D4E903010144C9
:1016B000CDE90001637803220221012001F028FC1A
:1016C0000421032002F036F8E368042103F1080244
:1016D0000620143301F0C6F8BDE83E40FEF758BDC1
:1016E000000000203EB50121032002F023F8204C29
:1016F00000230521E06800902278012001F0D0F954
:101700000421032002F016F8D4E903010144CDE9D5
:101710000001637803220221012001F0F9FB02217C
:10172000032002F007F8D4E903016278CDE9002034
:1017300001440291022203230521104601F0CAFC54
:101740000421032001F0F6FFE368032103F10A02FC
:101750000620143301F086F8E368052103F108023E
:1017600002200F3301F07EF8BDE83E40FEF710BDC9
:10177000000000203EB50121032001F0DBFF1D4CDD
:10178000002103232078E2688DE80700012205216B
:10179000104601F09FFC0321084601F0CBFFD4E97D
:1017A00003016278CDE9002001440291042305225F
:1017B0000221012001F06EFD0221032001F0BAFF99
:1017C000D4E903301844009062780321022001F02C
:1017D00033FB0421032001F0ADFFE368042103F192
:1017E00008020620143301F03DF8BDE83E40FEF744
:1017F000CFBC0000000000203EB50121032001F015
:1018000099FF244C002105232078E2688DE8070029
:1018100004220321022001F0B1F90321084601F05E
:1018200089FFD4E903010144CDE900016378032273
:101830000221012001F06CFB0321084601F07AFF30
:10184000D4E903301844009062780321022001F0AB
:10185000F3FA0321084601F06DFFD4E90301627831
:10186000CDE9002001440291022203231146052004
:1018700001F030FC0421032001F05CFFE368052146
:1018800003F1090201200D3300F0ECFFBDE83E40FA
:10189000FEF77EBC000000203EB50121032001F0D0
:1018A00049FF2C4C002105232078E2688DE80700D1
:1018B00004220321022001F061F90321084601F00E
:1018C00039FFD4E903010144CDE900016378032223
:1018D000022101205B1F01F01BFB0321084601F0E0
:1018E00029FFD4E903010144CDE900016378012215
:1018F000022103209B1E01F00BFB0321084601F08F
:1019000019FFD4E903010144CDE9000163780622FF
:101910000521042001F0FCFA0221032001F00AFF56
:10192000D4E903301844009062780221012001F0CC
:1019300083FA0421032001F0FDFEE368042103F192
:1019400008020620143300F08DFFBDE83E40FEF78C
:101950001FBC0000000000203EB50121032001F063
:10196000E9FE1B4C00230521E0680090227801204D
:1019700001F096F80221032001F0DCFED4E9030116
:101980006278CDE900200144032302910222012163
:10199000184601F0F3F80421032001F0CBFED4E94E
:1019A00003301844009062780321022001F078F897
:1019B0000421032001F0BEFEE368042103F10802C4
:1019C0000620143300F04EFFBDE83E40FEF7E0BBBA
:1019D0000000002038B50121032001F0ABFE164CB9
:1019E00000230421E06800902278032001F058F8D9
:1019F0000321084601F09EFED4E90330184400900C
:101A000062780521042001F04BF80421032001F045
:101A100091FEE3680321DA1D02200F3300F022FF5C
:101A2000E368042103F1080206200E3300F01AFFD8
:101A3000BDE83840FEF7ACBB000000203EB50121F8
:101A4000032001F077FE244C002105232078E26872
:101A50008DE8070004220321022001F08FF8032102
:101A6000084601F067FED4E903010144CDE9000115
:101A7000637803220221012001F04AFA02210320A7
:101A800001F058FED4E903010144CDE90001637877
:101A900003220221052001F03BFA0421032001F07A
:101AA00049FED4E903010144CDE900010322637832
:101AB0000221104601F02CFA0421032001F03AFE25
:101AC000E368042103F108020620143300F0CAFE83
:101AD000BDE83E40FEF75CBB000000203EB50121A2
:101AE000032001F027FE2B4C002105232078E2681B
:101AF0008DE8070003220221012001F0EBFA032107
:101B0000084601F017FED4E903010144CDE90001C4
:101B1000637803220221012001F0FAF90221032057
:101B200001F008FED4E903010144CDE900010322DC
:101B300063780221104601F0EBF90421032001F043
:101B4000F9FDD4E9033018440090627803210220A3
:101B500001F0EEF80421032001F0ECFDE36803211D
:101B6000DA1D02200F3300F07DFEE368042103F14B
:101B700008020620143300F075FEE368052103F126
:101B80000F0201200D3300F06DFEBDE83E40FEF770
:101B9000FFBA0000000000203EB50121032001F043
:101BA000C9FD2F4C00230521E06800902278022017
:101BB00001F042F90321084601F0BCFDD4E903011C
:101BC0006278CDE90020014402910523032202211D
:101BD000012001F05FFB0221032001F0ABFDD4E9FD
:101BE00003010144CDE900016378032202210520AD
:101BF00001F08EF90321084601F09CFDD4E90301B0
:101C00000144CDE90001032263780221104601F06E
:101C10007FF90421032001F08DFDD4E9033018443D
:101C200000906278052103201E3201F081F8042122
:101C3000032001F07FFDE368042103F10802062080
:101C4000143300F00FFEE368052103F109020120BF
:101C50000D3300F007FEBDE83E40FEF799BA0000E4
:101C6000000000203EB50121032001F063FD414C3E
:101C7000002105232078E2688DE807000422032173
:101C8000022000F07BFF0321084601F053FDD4E958
:101C900003010144CDE90001637803220221012000
:101CA00001F036F90221032001F044FDD4E90301DB
:101CB0000144CDE90001637803220221052001F0EF
:101CC00027F90321084601F035FDD4E90330184413
:101CD000009062780321022001F0AEF8032108464B
:101CE00001F028FDD4E903010144CDE90001637846
:101CF00003220221052001F00BF90321084601F01F
:101D000019FDD4E903010144CDE9000163780622FD
:101D10000221012001F0FCF80321084601F00AFD30
:101D2000D4E90330184400906278042101201E3267
:101D300000F0FEFF0421032001F0FCFCE368032116
:101D4000DA1D02200F3300F08DFDE368042103F15A
:101D500008020620143300F085FDE368052103F135
:101D6000090201200D3300F07DFDBDE83E40FEF785
:101D70000FBA0000000000203EB50121032001F051
:101D8000D9FC414C002105232078E2688DE807004A
:101D900002220121104601F09DF90321084601F0BD
:101DA000C9FCD4E903301844009062780421012072
:101DB0000A3200F0BDFF0321084601F0BBFCD4E964
:101DC00003010144CDE900016378012204210520CB
:101DD00001F09EF80221032001F0ACFCD4E90330AD
:101DE0001844009062780321022001F025F80321B5
:101DF000084601F09FFCD4E903010144CDE900014C
:101E0000637803220221052001F082F803210846AD
:101E100001F090FCD4E903016278CDE9002001448F
:101E20000291062302220121042001F053F903212B
:101E3000084601F07FFCD4E9033018440090627832
:101E40000421012000F02CFE0421032001F072FC8B
:101E5000E3680321DA1D02200F3300F003FDE3687D
:101E6000042103F1080206200D3300F0FBFCE368B7
:101E7000052103F109020120103300F0F3FCBDE855
:101E80003E40FEF785B90000000000203EB501216C
:101E9000032001F04FFC3D4C00230521E068009039
:101EA0002278022000F044FF0321084601F042FCA2
:101EB000D4E903016278CDE90020014402910523B1
:101EC00003220421012001F0E5F90421032001F09F
:101ED00031FCD4E903010144CDE90001637801221A
:101EE0000421052001F014F80221032001F022FC56
:101EF000D4E903016278CDE9002001440291012375
:101F000005220321022001F0E5F80321084601F033
:101F100011FCD4E903010144CDE9000163780322F7
:101F20000221052000F0F4FF0321084601F002FC25
:101F3000D4E903301844009062780621022000F0B2
:101F4000AFFD0321084601F0F5FBD4E90330184446
:101F5000009062780421012000F0A2FD04210320FA
:101F600001F0E8FBE3680321DA1D02200F3300F0E3
:101F700079FCE368042103F1080206200D3300F028
:101F800071FCBDE83E40FEF703B9000000000020F0
:101F90003EB50121032001F0CDFB4F4C0023012170
:101FA000E06800902278062000F07AFD03210846C0
:101FB00001F0C0FBD4E903016278CDE900200144BF
:101FC0000291052303220421012001F083F804215A
:101FD000032001F0AFFBD4E903010144CDE9000186
:101FE000637801220421052000F092FF02210320E2
:101FF00001F0A0FBD4E903016278CDE9002001449F
:102000000291012305220321022001F063F803213C
:10201000084601F08FFBD4E903010144CDE900013A
:10202000637803220221052000F072FF0321084695
:1020300001F080FBD4E903010144CDE9000163789C
:1020400001220521062000F063FF0321084601F06C
:1020500071FBD4E903301844009062780621022015
:1020600000F0EAFE0321084601F064FBD4E90330E6
:102070001844009062780421012000F011FD032132
:10208000084601F057FBD4E9033018440090627809
:102090000421012000F04CFE0421032001F04AFB42
:1020A000E368042103F10F020520DB1D00F0DAFBD9
:1020B000E3680221DA1C01200E3300F0D3FBE36851
:1020C000052103F109020120103300F0CBFBBDE82C
:1020D0003E40FEF75DB80000000000203EB5012143
:1020E000032001F027FB4E4C002105232078E268F5
:1020F0008DE8070002220121062000F03FFD0321A8
:10210000084601F017FBD4E90330184400906278C8
:102110000521012000F0C4FC0421032001F00AFB8A
:10212000D4E903010144CDE90001637801220521CE
:10213000022000F0EDFE0221032001F0FBFAD4E9B9
:1021400003016278CDE900200144029101230522B8
:102150000321022001F09EF80421032001F0EAFA95
:10216000D4E903010144CDE900016378032202218F
:10217000052000F0CDFE0221032001F0DBFAD4E9B6
:1021800003010144CDE90001637801220521062005
:1021900000F0BEFE0321084601F0CCFAD4E903307A
:1021A0001844009062780621022000F0C1FD03214E
:1021B000084601F0BFFAD4E9033018440090627871
:1021C0000421012000F038FE0221032001F0B2FAC0
:1021D000D4E903301844009062780421012000F013
:1021E0005FFC0421032001F0A5FAE368022103F15A
:1021F0000F020520DB1C00F035FBE36802219A1D6D
:1022000001200C3300F02EFBE368052103F10902E5
:102210000120133300F026FBBDE83E40FDF7B8BFB8
:10222000000000203EB50121032001F083FA324C6A
:1022300000230121E06800902278042000F0FCFDDA
:102240000221032001F076FAD4E903016278CDE996
:10225000002001440291052303220221012001F004
:1022600019F80321084601F065FAD4E90301014495
:10227000CDE90001637803220221052000F048FE29
:102280000421032001F056FAD4E903010144CDE909
:102290000001032263780221104600F039FE032179
:1022A000084601F047FAD4E90330184400906278F8
:1022B000052103200A3200F03BFD0421032001F038
:1022C00039FAE3680321DA1D02200F3300F0CAFA5D
:1022D000E368042103F10C020620143300F0C2FA73
:1022E000E368052103F1090201200D3300F0BAFA79
:1022F000BDE83E40FDF74CBF000000203EB5012187
:10230000032001F017FA264C002105232078E2680B
:102310008DE8070004220321022000F02FFC032196
:10232000084601F007FAD4E903010144CDE90001B0
:10233000637803220221012000F0EAFD022103203C
:1023400001F0F8F9D4E903301844009062780321D1
:10235000052000F071FD0421032001F0EBF9D4E920
:1023600003301844009062780221032000F0E0FC62
:102370000421032001F0DEF9E3680321DA1D0220C5
:102380000F3300F06FFAE368042103F1080206201E
:10239000143300F067FABDE83E40FDF7F9BE0000D7
:1023A000000000203EB50121032001F0C3F9194CC3
:1023B00000230621E06800902278052000F070FBE1
:1023C0000321084601F0B6F9D4E903016278CDE9AA
:1023D000002001440291032302220621052000F07F
:1023E00079FE0421032001F0A5F9E368042103F13B
:1023F000080206200E3300F035FAE368052103F1E8
:10240000090201200D3300F02DFABDE83E40FDF732
:10241000BFBE0000000000201CB50121032001F018
:1024200089F9304C00230321E068009022780220D3
:1024300000F036FB0321084601F07CF9D4E90330B3
:102440001844009062780321022000F0F5FC04217A
:10245000032001F06FF9D4E903010144CDE9000143
:10246000637803220221052000F052FD0321084673
:1024700001F060F9D4E903010144CDE90001032230
:1024800063780221104600F043FD0221032001F091
:1024900051F9D4E9033018440090627803210120F7
:1024A00000F0FEFA0421032001F044F9E368012161
:1024B000DA1D02200F3300F0D5F9E368042103F19F
:1024C00008020520143300F0CDF9E368022103F17E
:1024D000090201200D3300F0C5F9BDE81C40FDF7ED
:1024E00057BE00000000002038B50121032001F094
:1024F00021F9174C00230521E06800902278012083
:1025000000F09AFC0321084601F014F9D4E90330E5
:102510001844009062780321022000F0C1FA0421DF
:10252000032001F007F9E368042103F10A02062001
:10253000123300F097F9E368012103F10902042046
:102540000F3300F08FF9BDE83840FDF721BE0000E1
:10255000000000203EB50121032001F0EBF8154CEE
:1025600000230521E06800902278012000F064FC3F
:102570000221032001F0DEF8D4E903016278CDE9FD
:10258000002001440423029105221146184600F060
:1025900081FE0421032001F0CDF8E368052103F159
:1025A000090201200D3300F05DF9BDE83E40FDF762
:1025B000EFBD00000000002038B50121032001F02C
:1025C000B9F8164C00230421E0680090227802201C
:1025D00000F066FA0321084601F0ACF8D4E90330B4
:1025E0001844009062780521022000F025FC0421A7
:1025F000032001F09FF8E3680321DA1D02200F3366
:1026000000F030F9E368052103F1090201200D33E0
:1026100000F028F9BDE83840FDF7BABD0000002001
:102620001CB50121032001F085F8144C0023022180
:10263000E06800902278012000F032FA0321084679
:1026400001F078F8D4E903010144CDE90001637891
:1026500007220621052000F05BFC0421032001F085
:1026600069F8E368042103F1080206200E3300F044
:10267000F9F8BDE81C40FDF78BBD0000000000200C
:102680003EB50121032001F055F8184C0023072125
:10269000E06800902278062000F002FA0321084644
:1026A00001F048F8D4E903016278CDE90020014443
:1026B0000291052304220321022000F00BFD0421D6
:1026C000032001F037F8E3680321DA1D02200F33FD
:1026D00000F0C8F8E368052103F1090201200F3377
:1026E00000F0C0F8BDE83E40FDF752BD00000020FC
:1026F0003EB50121032001F01DF81F4C00210423E9
:102700002078E2688DE8070003220521012000F00F
:10271000E1FC0221032001F00DF8D4E90301627805
:10272000CDE900200144029103230422012102206B
:1027300000F0B0FD0321084600F0FCFFD4E90301DE
:102740006278CDE900200144029105230222042190
:10275000062000F09FFD0421032000F0EBFFE3685A
:10276000042103F1080206200E3300F07BF8BDE8D7
:102770003E40FDF70DBD000000000020F0B5002137
:1027800084250F4A212608274FF0420C4FF0100EE7
:10279000C1EB01145FF0000000EB80032344401CF8
:1027A000D554134403285E709F7083F803C083F8E8
:1027B00004E0F1DB491CB1F5007FE9DBF0BD00006E
:1027C000FC00002000B585B0002001900390114866
:1027D000816941F020018161816901F0200104914A
:1027E000816941F004018161816901F00401049172
:1027F000816941F0080181618069694600F0080043
:10280000049007200090012002900348FDF7C8FFC4
:1028100005B000BD00100240000801400F4810B58F
:102820000D4901604FF48271416000218160C160F7
:102830004FF400720161C0E905122022C0E90721AE
:10284000416281620A21C162FEF7BBFB002801D010
:1028500072B6FEE710BD00000030014064000020A9
:10286000FEE7FEE72DE9F0411F4690460E4605467D
:102870005FF00004FFF782FF082D0CD2DFE805F0BF
:102880000B04061C1F21252800231FE0002319E04C
:10289000384600F0B1FD3220FDF7B8FE00231A469D
:1028A0001946384600F0A8FD082E27D2DFE806F0CA
:1028B00026141E203436393CFF23002203E0002377
:1028C00007E0FF23FF220021E2E7FF23002201E0CF
:1028D000FF23FF22FF21DBE700231A46FF214046AA
:1028E00000F08AFD6420FDF791FE07E0002316E06A
:1028F000FF2300220021404600F07EFD3220FDF73C
:1029000085FE00231A461946404600F075FD641CFA
:10291000052CAFDBBDE8F081002306E0FF23FF229A
:10292000E8E7FF23002201E0FF23FF22FF21E2E787
:10293000704710B5406A01684A6822F003024A6095
:10294000416D41F010014165012180F85110FEF701
:1029500037FB10BD10B5406AFEF74BFC10BD38B513
:102960000546446AFEF712F80246286800688006A9
:1029700023D42068416821F020014160206841682B
:1029800021F0020141606421204600F01AF818B1DC
:10299000606D40F020006065A068002118B92068D3
:1029A000C26880680090E186012084F85100606D63
:1029B00018B12046FEF704FB38BD2046FEF718FC90
:1029C00038BD38B50B46009204460022802100F045
:1029D00009F8002804D0606D40F0200060650320F5
:1029E00038BD00002DE9F8431E469146884604464E
:1029F000089DFDF7CBFF401B351AFDF7C7FF0746C3
:102A000025480068C0F3CB30684338E0701C37D0ED
:102A1000FDF7BCFFC01BA84203D215B1009860B3FC
:102A20002CE02068416821F0E00141606068B0F569
:102A3000827F0BD1A068B0F5004F02D0B0F5806F57
:102A400004D12068016821F040010160A06AB0F55E
:102A5000005F09D12068016821F4005101602068FD
:102A6000016841F400510160012084F85100002008
:102A700084F850000320BDE8F8830025401E009034
:102A80002068816838EA010004D000214945BDD1A1
:102A90000020F0E70121F9E7500000207047000016
:102AA0002DE9FF5F1D46DDF838A01F46DFF8C8B0EE
:102AB0000AF1100931E000BFFFF760FE0F242E4637
:102AC00005F1100823E0B81B23D4AAEB05018842C6
:102AD00001D3641E1AE0AE4201D0009900E00199D2
:102AE000082913D2DFE801F012040A1D232C353E19
:102AF00000231BF8041028441A4604E01BF80420A5
:102B00002844002311E0641E00F076FC761C464544
:102B1000D9D30298FDF77AFD7F1C4F45CCD3BDE891
:102B2000FF9F1BF80430284400220021EBE71BF82C
:102B30000420641E0BEB0401284449780023E3E7DA
:102B40001BF80430641E0BEB040128444A78002172
:102B5000DAE71BF80430641E0BEB040128444978C3
:102B60000022D1E71BF80430641E0BEB040128445B
:102B70008A784978C8E70000240000202DE9FF5F2B
:102B8000DDE90F402546A0EB040A04F1100600F130
:102B9000230996E0FFF7F2FD4FF00F08B5422ED95A
:102BA000A5F1130B274628E0BBEB070027D45045BF
:102BB00002D3A8F101081FE0A74201D1039900E068
:102BC0000199082918D2DFE801F017040C1E2630FD
:102BD0003A4456492044002311F80810A8F101088E
:102BE00035E052492044002311F80820A8F10108DB
:102BF00023E000BF00F000FC7F1CB742D4D34FF0AD
:102C00000F08274657E049492044002211F80830B0
:102C1000A8F1010811E045492044002311F80820DB
:102C2000A8F1010841444978E4E74049204411F8FB
:102C30000830A8F1010841444A780021DAE73B490D
:102C4000204411F80830A8F10108414449780022D5
:102C5000D0E73649204411F80830A8F10108414472
:102C60008A784978C6E7E81B27D4504502D3A8F1F3
:102C700001081FE0A74201D1029900E0009908294C
:102C800018D2DFE801F017040C232B353F49274900
:102C90002044002311F80810A8F101083AE0234964
:102CA0002044002311F80820A8F1010828E000BF03
:102CB00000F0A2FB7F1CB742D5D30E98FDF7A6FC0F
:102CC0006D1C4D45FFF466AFBDE8FF9F17492044DA
:102CD000002211F80830A8F1010811E0134920443E
:102CE000002311F80820A8F1010841444978DFE7E2
:102CF0000E49204411F80830A8F1010841444A78EF
:102D00000021D5E70949204411F80830A8F101084D
:102D1000414449780022CBE70449204411F80830A7
:102D2000A8F1010841448A784978C1E724000020CD
:102D30002DE9FF5F98460E9E1F46DFF8F8B006F1BA
:102D4000020A30E0FFF71AFD0124454608F10209A6
:102D500023E0781B23D4A6EB0801884201D3641E2C
:102D60001AE0454501D1019900E00099082913D2E4
:102D7000DFE801F012040A353B444D5600231BF8EE
:102D8000041040441A4604E01BF804204044002389
:102D900029E0641E00F030FB6D1C4D45D9D302982C
:102DA000FDF734FC7F1C5745CCD3FFF7E7FC00242C
:102DB00000231A46FF21701E00F01EFB3220FDF793
:102DC00025FC00231A461946701E00F015FB322020
:102DD000FDF71CFC641C052CEADBBDE8FF9F1BF81B
:102DE0000430404400220021D3E71BF80420641E75
:102DF0000BEB0401404449780023CBE71BF8043077
:102E0000641E0BEB040140444A780021C2E71BF822
:102E10000430641E0BEB0401404449780022B9E7FA
:102E2000044A1BF804301232641E4044125D1BF841
:102E30000410AFE7020000202DE9FF5F1D46DDF81A
:102E400038A01F46DFF8C4B00AF1080931E000BF1E
:102E5000FFF794FC07242E4605F1080823E0B81B71
:102E600023D4AAEB0501884201D3641E1AE0AE42C6
:102E700001D1019900E00099082913D2DFE801F09F
:102E800012040A1D232C353E00231BF8041028448D
:102E90001A4604E01BF804202844002311E0641EB5
:102EA00000F0AAFA761C4645D9D30298FDF7AEFB8E
:102EB0007F1C4F45CCD3BDE8FF9F1BF8043028444E
:102EC00000220021EBE71BF80420641E0BEB040139
:102ED000284449780023E3E71BF80430641E0BEB19
:102EE000040128444A780021DAE71BF80430641E04
:102EF0000BEB0401284449780022D1E71BF8043089
:102F0000641E28441BF804100A46C9E71400002078
:102F10002DE9FF5FDDE90E5B2F460BF1080AA7E004
:102F2000FFF72CFC07242E4605F1080999E000BFA5
:102F3000B7EB060874D4ABEB0501884501D3641EDA
:102F40008EE00098082813D2DFE800F012040A1B74
:102F500021282F365E480023015D08EB050029E09B
:102F60005B480023025D08EB05001CE000F044FA1A
:102F70000198082836D2DFE800F035262C3E444C74
:102F8000545B53480022035D08EB05000BE05048FA
:102F90000023015D08EB05000A46E7E74C48025DA7
:102FA00008EB050013460021E0E74948015D08EB06
:102FB00005000B460022D9E74548015D08EB0500F6
:102FC0000B461A46D2E742480023015D08EB050094
:102FD0002CE03F480023025D08EB05001EE0401D89
:102FE00000F00AFA029808283AD2DFE800F03928FF
:102FF0002F464D565E6636480022035D08EB0500FD
:103000000CE03348025D10380023015D08EB050039
:10301000E5E72F48025D08EB050013460021DEE7D7
:1030200022E02B48015D08EB05000B460022D6E7A5
:103030002748015D08EB05000B461A46CFE72448F8
:1030400000231A46015D08EB050005E02048002337
:10305000025D08EB050015E00A30641E00F0CCF9B3
:10306000761C4E45FFF464AF0398FDF7CFFA7F1C42
:103070005745FFF455AFBDE8FF9F15480022035D9B
:1030800008EB05000021E7E71148025D1038641ED7
:103090000023015D08EB050017E00D48035D641E89
:1030A0000021025D08EB05000FE00948035D641E86
:1030B0000022015D08EB050007E00548035D641E82
:1030C00020448278417808EB05000A30C6E700000A
:1030D000140000202DE9FF5FDDE90F4B254604F1C8
:1030E00008070BF1120A9AE0FFF748FB4FF00708B8
:1030F000BD4230D9A5F10A0926462AE0B9EB0600FF
:1031000029D4ABEB0401884202D3A8F101081FE0E7
:10311000A64201D0019900E00399082918D2DFE8FE
:1031200001F017463C3228200C0459492044002362
:1031300011F80810A8F1010837E055492044002390
:1031400011F80820A8F1010825E000BF00F054F9AB
:10315000761CBE42D2D34FF00708264604F1070979
:1031600057E04B492044002211F80830A8F101082B
:1031700011E047492044002311F80820A8F1010874
:1031800041444978E2E74249204411F80830A8F167
:10319000010841444A780021D8E73D49204411F80C
:1031A0000830A8F10108414449780022CEE73849A7
:1031B000204411F80830A8F1010841448A78497880
:1031C000C4E7A81B27D4584502D3A8F101081FE083
:1031D000A64201D0009900E00299082918D2DFE840
:1031E00001F017040C232B38424C294920440023BA
:1031F00011F80810A8F101083DE0254920440023FA
:1032000011F80820A8F101082BE000BF00F0F4F845
:10321000761C4E45D5D30E98FDF7F8F96D1C554533
:10322000FFF462AFBDE8FF9F19492044002211F866
:103230000830A8F1010814E01549204401F11003F9
:1032400011F80820A8F1010803EB080100234978D0
:10325000DCE70F49204411F80830A8F10108414487
:103260004A780021D2E70A49204411F80830A8F131
:103270000108414449780022C8E70549204411F873
:103280000830A8F1010841448A784978BEE7000077
:10329000140000202DE9FF5FDDE90F5B2F460BF1E5
:1032A000080A76E0FFF76AFA07242E4605F10808B7
:1032B00069E000BFB7EB060967D4ABEB05018945B0
:1032C00001D3641E5EE0AE4201D0009800E0029897
:1032D000082813D2DFE800F012040A161C242C344C
:1032E00044480023015D09EB050027E04148002325
:1032F000025D09EB050019E000F07EF8AE4226D031
:10330000019825E03B480022035D09EB05000DE034
:1033100038480023025D2044417809EB0500EBE7C3
:103320003448035D2044427809EB05000021E3E7BF
:103330003048035D2044417809EB05000022DBE7BB
:103340002C48015D09EB05000B461A46D4E70398AB
:10335000082817D2DFE800F016040B2128323B447E
:10336000244800231A46015D09EB050005E02148C9
:103370000023025D09EB050014E00830B4F10104FC
:1033800000F03AF8761C464594D30E98FDF73EF9C6
:103390007F1C574586D3BDE8FF9F16480022035D7A
:1033A00009EB05000021E8E71248025D1038641EB1
:1033B00020440023417809EB050019E00D48035D26
:1033C000641E20440021427809EB050010E0094802
:1033D000035D641E20440022417809EB050007E0EC
:1033E0000448035D641E20448278417809EB05009F
:1033F0000830C5E71400002070B51D461646044687
:1034000000F000FC3146204600F098FB294620469B
:10341000BDE8704000F02EBB38B5284C284D012186
:10342000E0680090002322780846FFF705FD01219F
:103430002846FDF7A5FA90B91420FDF7E7F8012119
:103440002846FDF79DFA50B92178052901D0891E3B
:10345000217001212846FDF793FA0028F9D00221B6
:103460002846FDF78DFA90B91420FDF7CFF8022118
:103470002846FDF785FA50B92178642901D0891CC6
:10348000217002212846FDF77BFA0028F9D004219B
:103490002846FDF775FA0028C1D11420FDF7B6F8CB
:1034A00004212846FDF76CFA0028B8D104212846EB
:1034B000FDF766FA0028F9D038BD000000000020B2
:1034C0000008014038B52A4C2A4D00BFD4E903302A
:1034D00018440090022162780846FFF7ADFC0121F4
:1034E0002846FDF74DFA90B91420FDF78FF8012119
:1034F0002846FDF745FA50B96178052901D0891EA3
:10350000617001212846FDF73BFA0028F9D002211D
:103510002846FDF735FA90B91420FDF777F8022117
:103520002846FDF72DFA50B96178C82901D0891CC9
:10353000617002212846FDF723FA0028F9D0042102
:103540002846FDF71DFA0028C0D11420FDF75EF8CB
:1035500004212846FDF714FA0028B7D10421284693
:10356000FDF70EFA0028F9D0BDE83840FCF72CBF73
:10357000000000200008014010B5FFF7FFF800F040
:1035800009F800F059F8FFF747FFBDE81040FFF7D2
:1035900099BF000070B5FDF705FF254C254D0121B1
:1035A0002846FDF7EDF990B91420FDF72FF8012119
:1035B0002846FDF7E5F950B9E068401CE060FDF7EA
:1035C000F1FE01212846FDF7DBF90028F9D00221A0
:1035D0002846FDF7D5F9A0B91420FDF717F8022108
:1035E0002846FDF7CDF960B9E068012801D0401EFA
:1035F000E060FDF7D7FE02212846FDF7C1F900285B
:10360000F9D004212846FDF7BBF90028C7D11420C2
:10361000FCF7FCFF04212846FDF7B2F90028BED1D3
:1036200004212846FDF7ACF90028F9D070BD000050
:10363000000000200008014070B5FDF7CBFE224DD0
:10364000224C01212046FDF79BF990B91420FCF78C
:10365000DDFF01212046FDF793F950B92869401C90
:103660002861FDF7B7FE01212046FDF789F9002802
:10367000F9D002212046FDF783F9A0B91420FCF708
:10368000C5FF02212046FDF77BF960B928690128B2
:1036900001D0401E2861FDF79DFE02212046FDF766
:1036A0006FF90028F9D004212046FDF769F90028B8
:1036B000C7D11420FCF7AAFF04212046FDF760F9CA
:1036C0000028BED170BD00000000002000080140AD
:1036D000FDF762B930B58FB028216846FCF739FD97
:1036E00014210AA8FCF735FD01210804CDE90010DA
:1036F0000024029402250491CDE907504FF4E01014
:1037000009906846FDF7CCFA08B172B6FEE70F20C3
:10371000CDE90A054FF48060CDE90C4002210AA8EA
:103720000E94FDF7D1F9002801D072B6FEE70FB074
:1037300030BD7047054A6423D070080A50719171FA
:10374000082202490248FDF7D3BD00001C000020FA
:10375000BC00002070B5044600680169E26821F4ED
:103760004051114301612169A06808436169084320
:103770002168CA6841F20C639A430243CA60206818
:103780004169A26921F44071114341611E492068D9
:10379000884202D1FDF73EFA01E0FDF72BFA00EB7B
:1037A000C00101EB0012606864218000B2FBF0F3FD
:1037B000B3FBF1F36FF018067343B2FBF0F5B2FB05
:1037C000F0F605EB8305322303EB0515B5FBF1F5A8
:1037D000B6FBF1F605F0F00505EB0615B2FBF0F6C9
:1037E000B2FBF0F0B0FBF1F06FF01802504306EBC3
:1037F000800003EB0010B0FBF1F0216800F00F0037
:103800002844886070BD0000003801402DE9F04177
:10381000984617460E460446069D1DE0681C1BD0C0
:103820002DB1FDF7B3F8A0EB0800A84214D9206829
:10383000C16821F4D071C1602068416921F00101A3
:103840004161202084F8390084F83A00002084F88F
:1038500038000320BDE8F0812068006836EA0000E7
:1038600004D00020B842D9D00020F3E70120F9E7C6
:10387000FEE70907090E002804DB00F1E02080F8CC
:103880000014704700F00F0000F1E02080F8141DD4
:10389000704702E008C8121F08C1002AFAD1704719
:1038A0007047002001E001C1121F002AFBD17047C0
:1038B00008B5FDF779F8FFF70DFFFEF783FF6948BC
:1038C000416941F0010141614069002200F00100BD
:1038D000009011460D20FDF7C5F80D20FDF7B4F856
:1038E000FEF79CFF61486049002401604FF41651C7
:1038F000C0E901140C21C460C0E904418461C461C1
:10390000FDF78CFC08B172B6FEE7584941F6146227
:103910004031A1F19800FDF7FFFB55487E21017071
:10392000FF214170062181700471EF21C1714FF4B4
:10393000FA642046FCF76AFE1E210620FFF7FAFE15
:1039400040F6B83740F2DC584FF4C86940F2A46A38
:103950004FF4E16B6510A610FDF75AFD2046FCF709
:1039600055FEFEF737F82046FCF750FEFEF71AFD2D
:103970003846FCF74BFEFEF7B7FD2046FCF746FE47
:10398000FEF7E8FD4046FCF741FEFEF715FE48460F
:10399000FCF73CFEFEF744FE5046FCF737FEFEF710
:1039A0006FFE5846FCF732FEFEF7A2FE40F26C7046
:1039B000FCF72CFEFDF766FD2046FCF727FEFDF721
:1039C0008FFD2846FCF722FEFDF7C8FD3846FCF7C0
:1039D0001DFEFDF705FE3046FCF718FEFDF742FE22
:1039E0002846FCF713FEFDF77DFE3046FCF70EFE81
:1039F000FDF7C0FE2846FCF709FEFDF7FDFE284650
:103A0000FCF704FEFDF748FF2846FCF7FFFDFDF735
:103A1000A3FF2846FCF7FAFDFEF760F82846FCF7FE
:103A2000F5FDFEF7B9F82846FCF7F0FDFEF71AF9A8
:103A30002846FCF7EBFDFEF79FF93046FCF7E6FD64
:103A4000FEF724FA3046FCF7E1FDFEF7A1FAFEF797
:103A500045FBFEF7E7FBFEF751FCFDF7EFFFFEF736
:103A6000DBFC79E70010024000380140BC00002078
:103A70001C00002030B5C0EB001200232E481C466D
:103A80000A32D5185B1C4455052BFADB0C064FF0A7
:103A9000800302D5F024845400E083544C0606D5FC
:103AA000845C44F0070484548418637003E0835CEE
:103AB00043F0040383548B0600EB02035C7802D5C9
:103AC00044F03C0401E044F020045C70CB0600EBC1
:103AD00002035C7844F001045C7001D5E0249C7022
:103AE0000B0700EB02039C7802D544F00F0401E0C1
:103AF00044F008049C704B0701D5782300E0402374
:103B00008418E3708B0700EB0203DC7805D544F0E2
:103B10000304DC70C0241C7102E044F00204DC7079
:103B20001044C907017902D041F01E0101E041F0C3
:103B30001001017130BD0000FC00002030B5C0EB69
:103B4000001200232E481C46521DD5185B1C4455FC
:103B5000052BFADB0C064FF0800302D5F0248454C9
:103B600000E083544C0606D5845C44F0070484547A
:103B70008418637003E0835C43F0040383548B0672
:103B800000EB02035C7802D544F03C0401E044F011
:103B900020045C70CB0600EB02035C7844F0010467
:103BA0005C7001D5E0249C700B0700EB02039C784D
:103BB00002D544F00F0401E044F008049C704B0768
:103BC00001D5782300E040238418E3708B0700EBD5
:103BD0000203DC7805D544F00304DC70C0241C71BA
:103BE00002E044F00204DC701044C907017902D0FD
:103BF00041F01E0101E041F01001017130BD0000F3
:103C0000FC00002030B5C0EB001200232D481C46FC
:103C1000D5185B1C4455052BFADB0C064FF08003CE
:103C200002D5F024845400E083544C0606D5845C0D
:103C300044F0070484548418637003E0835C43F009
:103C4000040383548B0600EB02035C7802D544F036
:103C50003C0401E044F020045C70CB0600EB02035E
:103C60005C7844F001045C7001D5E0249C700B0783
:103C700000EB02039C7802D544F00F0401E044F00D
:103C800008049C704B0701D5782300E0402384187A
:103C9000E3708B0700EB0203DC7805D544F00304E6
:103CA000DC70C0241C7102E044F00204DC7010449B
:103CB000C907017902D041F01E0101E041F0100175
:103CC000017130BDFC000020000000000000000079
:103CD00001020304060708090000000001020304B2
:103CE000003D000800000020540000009238000849
:103CF000543D00085400002034230000A23800087E
:103D0000153232FE0A1E64FE000200002900000087
:103D10000C000000010305080A3250FE00000000FC
:103D200000000000010305080A141E28323C46501A
:103D30005A646EFE01000000020000000300000053
:103D4000040000000100000010000000000000005E
:043D50000024F40057
:04000005080000ED02
:00000001FF
