:020000040800F2
:100000008823002001010008A52D0008E71300083F
:10001000CD2A00088D010008D94F0008000000001B
:10002000000000000000000000000000E12F0008B8
:100030000302000800000000752E0008394E000879
:100040001B0100081B0100081B0100081B01000820
:100050001B0100081B0100081B0100081B01000810
:100060001B0100081B0100081B0100081B01000800
:100070001B010008CD0100081B0100081B0100083E
:100080001B0100081B0100081B0100081B010008E0
:100090001B0100081B0100081B0100081B010008D0
:1000A0001B0100081B0100081B0100081B010008C0
:1000B0001B0100081B0100081B0100081B010008B0
:1000C0001B0100081B0100081B0100081B010008A0
:1000D0001B0100081B0100081B0100081B01000890
:1000E0001B0100081B0100081B010008DFF80CD0F1
:1000F00000F03AF800480047195000088823002013
:100100000648804706480047FEE7FEE7FEE7FEE7B1
:10011000FEE7FEE7FEE7FEE7FEE7FEE79B4E000890
:10012000ED000008202A04DB203A21FA02F0002129
:10013000704721FA02F3D040C2F1200291400843F7
:1001400019467047D2B201E000F8012B491EFBD2DC
:1001500070470022F6E710B513460A4604461946D2
:10016000FFF7F0FF204610BD064C074D06E0E068A3
:1001700040F0010394E8070098471034AC42F6D3EE
:10018000FFF7B8FF4854000868540008FEE7000075
:1001900010B50D4C0421204600F014FC002812D1AB
:1001A000142000F055FA0421204600F00BFC002832
:1001B00009D10421204600F005FC0028F9D0BDE853
:1001C000104004F08DBD10BD00080140014800F052
:1001D0002FB90000241F002030B590F840500124B2
:1001E000AC40C56B6C60046863604368102B0368A7
:1001F00003D099600068C26030BD9A600068C16039
:1002000030BD704700B50749074800F09DF8054824
:1002100006490268CA6042680A61027A0A70007B75
:10022000487000BD101F002000FC010800000020E5
:1002300072B6FEE706490020C8610648016941F030
:1002400004010161016941F0400101617047000052
:10025000681F002000200240064A0021D1610649A3
:100260000A6942F002020A614861086940F04000F0
:1002700008617047681F002000200240044B0022E4
:10028000DA61044A136943F0010313610180704786
:10029000681F00200020024014480022C168CB06DD
:1002A000134904D5CA6942F00202CA611022C36828
:1002B0005B0705D5CB6943F00103CB6142F0040233
:1002C000C369DB0707D0CB6943F00403CB61C16985
:1002D00021F00101C161A2F58071013901D0C26034
:1002E0007047C16921F00101C161704700200240DF
:1002F000681F002070B5054600F06AFB0646114CE9
:1003000009E0681C07D025B100F062FB801BA84201
:1003100001D9032070BDE068C007F2D1E068800613
:1003200001D52020E060E068C00605D4E069C00780
:1003300002D1E068400703D5FFF7AEFF012070BD92
:10034000002070BD0020024002680A600A68521C4A
:1003500002D0001D091DF7E700200860704700006B
:100360002DE9F84300250F4606462C4657F8240091
:1003700008B1641CFAE7641E00F020FA304600F071
:100380002DF8804606EB840000F028F8124902465A
:100390000020C1F808800860A2EB0800012202EBEF
:1003A0009020C86069460C4800F064F940B90DE03F
:1003B00057F8252000233146022000F0BFF918B17C
:1003C00000F0ACF9BDE8F8836D1C361DA542EFDBEB
:1003D00000F0AAF90020F5E7540000200A4B10B500
:1003E00000215A0403EB8124844207D902EB8124C3
:1003F000844203D8880200F1006010BD491C8029A6
:10040000F0DB4FF0FF3010BD00040008064800F19B
:100410003401C2680A6002694A6002788A604078E2
:10042000C8600248FFF79CBF0000002000FC0108E4
:100430002DE9F05FC16B0C6801680B68D0F840C013
:10044000042202FA0CF2494DDFF824A1494E4A4F2A
:10045000DFF828B1DFF828E122422CD05A072AD54C
:100460000A68920603D40A6822F004020A6001684E
:10047000A94201D1042219E0514501D1402215E0E1
:10048000B14202D14FF4806210E0B94202D14FF480
:1004900080420BE0594502D14FF4802206E07145BD
:1004A00002D14FF4800201E04FF080622F490839F9
:1004B0004A60C16A3BE04FF0020808FA0CF818EAFB
:1004C000040F4FF000094FF0010235D05FEA837846
:1004D00032D50B689B0605D40B6823F00A030B602A
:1004E00080F821200168A94201D1022219E051457A
:1004F00001D1202215E0B14202D14FF4007210E088
:10050000B94202D14FF400520BE0594502D14FF4E9
:10051000003206E0714502D14FF4001201E04FF0C5
:100520000072124908394A6080F82090816A0029D7
:100530001AD0BDE8F05F0847082505FA0CF52542FA
:1005400012D01B0710D50B6823F00E030B6090F838
:100550004010C36B02FA01F15960826380F82120D8
:1005600080F82090016BE2E7BDE8F09F08000240B0
:100570001C0002403000024044000240580002408B
:100580006C00024030B528B308C81349142219443E
:10059000B1FBF2F18900C163104981630221417707
:1005A0001A6843F6F0718A43D0E900142143D0E978
:1005B00002452C4321430469214344692143846952
:1005C00021431143196000214163012242770177E1
:1005D000084630BD012030BDF8FFFDBF00000240DD
:1005E00070B5044690F82000002501280CD00120A9
:1005F00084F8200094F821600020012E06D084F8B1
:1006000020000225284670BD022070BD022684F815
:100610002160A0632068066826F001060660204677
:10062000FFF7DAFDE06A00282068016802D041F097
:100630000E0106E021F0040101602068016841F02C
:100640000A0101602068016841F001010160D9E7F9
:1006500070B5044600F0BCF90546601C02D00448A1
:100660000078044400F0B4F9401BA042FAD370BDF6
:10067000440000202DE9F047054626480F46012694
:10068000017E01290FD00121814601762868DFF81B
:1006900088804CF25034022808D0A2462046FFF74A
:1006A00029FEA8B131E00220BDE8F0872046FFF71F
:1006B00021FE08BB0120FFF7BDFD2046FFF71AFE13
:1006C000D8F81010064621F00401C8F810101CE0FC
:1006D0004FF0FF303860AC6811E02046FFF7BCFDFA
:1006E0005046FFF707FED8F81010060021F002016F
:1006F000C8F8101001D03C6007E004F58064D5E92B
:10070000020100EB8120A042E7D8002189F81810EF
:100710003046C9E7681F0020002002400148C06938
:1007200070470000681F00200348016941F0800104
:100730000161002070470000002002402DE9F05FB9
:1007400007461C4888460024017E15461E4601299E
:1007500009D00121814601764CF2503A5046FFF70C
:10076000C9FD18B122E00220BDE8F09F012F02D0A0
:10077000022F00D00427D346DFF83CA022012846F0
:100780003146FFF7CFFC81B208EB4400FFF776FD5E
:100790005846FFF7AFFDDAF8102022F00102CAF840
:1007A000102018B9641CE4B2BC42E7D3002289F8D7
:1007B0001820D9E7681F00200020024006490020C9
:1007C0000A69120607D5054A4A60054A4A6009695E
:1007D000090600D50120704700200240230167452B
:1007E000AB89EFCD2DE9F84FDFF8B891002409F17E
:1007F000040A0AF1040B23460F270BF1040EC9E08B
:100800000125A5402A40AA427DD1674ED1F804C0F7
:10081000ACEB0608B44532D014DCBCF1030F3AD07F
:1008200009DCBCF1000F2AD0BCF1010F1CD0BCF1D7
:10083000020F31D11DE0BCF1110F17D0BCF1120F26
:100840002AD119E0B8F5881F19D006DCB8F5803F29
:1008500015D0B8F5801F1FD111E0B8F5001F0ED0DC
:10086000B8F5041F18D10AE0CB6815E0CB681B1D52
:1008700012E0CB6808330FE0CB680C330CE08B68D8
:100880002BB1012B4FF0080303D0456104E0042392
:1008900002E0056100E00023FF2A01D8064601E0DE
:1008A00000F104064FEA840501D9A5F12005D6F828
:1008B000008007FA05FC28EA0C0803FA05F548EA67
:1008C0000508C6F800804D68ED0062D5374DAE6969
:1008D00046F00106AE61AD6924F0030605F001059E
:1008E0000095334D06EB050CDCF80850A607360FD3
:1008F00007FA06F825EA0805DFF8B880404503D175
:100900004FF0000817E044E0DFF8AC80404502D12A
:100910004FF001080FE0DFF8A480404502D14FF00E
:10092000020808E0DFF89880404502D14FF0030844
:1009300001E04FF0040808FA06F848EA0508CCF888
:1009400008804D68D9F80060ED034D4601D5164387
:1009500000E096432E604D68DAF80060AD0355461E
:1009600001D5164300E096432E604D68DBF8006029
:10097000ED025D4601D5164300E096432E604D68BA
:10098000DEF80060AD02754601D5164300E09643DF
:100990002E60641C0D682A46E5407FF431AFBDE847
:1009A000F88F000000040140000011100010024008
:1009B0000000014000080140000C0140001001400F
:1009C000001401408068084000D0012070470000FA
:1009D0000148806870470000440000200248816898
:1009E000027811448160704744000020074810B528
:1009F000016841F010010160032000F075F800204B
:100A000000F006F800F024F8002010BD002002409D
:100A100070B50D4D04464FF47A712878B1FBF0F0B3
:100A20000A490968B1FBF0F000F006FC48B9102C47
:100A300007D200222146501E00F036F800206C60DC
:100A400070BD012070BD0000440000205000002057
:100A50000C4808B5816941F001018161816901F0AB
:100A600001010091C16941F08051C161C06900F08C
:100A7000805000900448416821F0E06141F000712D
:100A8000416008BD0010024000000140002809DB61
:100A900000F01F02012191404009800000F1E02098
:100AA000C0F8001170470000F0B40E4B1B680C46F4
:100AB000C3F30223C3F10705042D00D90425191D32
:100AC000072901D2002300E0DB1E012606FA05F10A
:100AD000491E214099409E40761E16403143F0BC8D
:100AE00004F07BBA0CED00E0064900F0070208684C
:100AF0004FF6FF03184040EA0220034A1043086003
:100B0000704700000CED00E00000FA052DE9F04709
:100B10000F46050061D0434E306800F00700B84230
:100B200009D2306820F0070038433060306800F0A8
:100B30000700B84251D128683B4C810712D54007C5
:100B400003D5606840F4E06060602878000703D552
:100B5000606840F4605060606068A96820F0F00050
:100B6000084360602878C00728D06868012810D042
:100B70002168022810D0890700292EDA616821F047
:100B8000030101436160FFF723FF804641F288398A
:100B90000DE021688903EFE78901EDE7FFF718FF12
:100BA000A0EB0801494502D90320BDE8F087606841
:100BB000696800F00C00B0EB810FEFD1306800F0F5
:100BC0000700B8420BD9306820F007003843306086
:100BD000306800F00700B84201D00120E5E728782E
:100BE000400705D56068E96820F4E060084360606C
:100BF0002878000706D56068296920F4605040EA2B
:100C0000C100606000F038F86168084AC1F3031160
:100C1000515CC8400649086006480068FFF7F8FEC6
:100C20000020C2E7002002400010024030540008BB
:100C30005000002048000020044805490068496829
:100C4000044AC1F30221515CC840704750000020A3
:100C500000100240405400080448054900684968F3
:100C6000044AC1F3C221515CC840704750000020C3
:100C7000001002404054000812A185B00FC98DE851
:100C80000F0014A0144A006804905168134801F042
:100C90000C03042B10D0082B0ED1C1F38343C903DE
:100CA0001DF803000AD5516804AAC1F34041515C04
:100CB0000A4A5043B0FBF1F005B070470849484379
:100CC000FAE7000002030405060708090A0B0C0DE9
:100CD0000E0F1010010200000010024000127A00F6
:100CE00000093D002DE9F84F040070D02078C04D78
:100CF000C00749D06868C0F38100012807D0686840
:100D0000C0F38100022809D16868C00306D52868AD
:100D1000800339D560680028E7D035E06068B0F519
:100D2000803F0BD010B1B0F5A02F11D0286820F46F
:100D300080302860286820F4802002E0286840F491
:100D400080302860606890B1FFF742FE06460AE0F6
:100D5000286840F480202860F0E700BFFFF738FEE5
:100D6000801B642873D828688003F7D50CE0FFF750
:100D70002FFE064605E000BFFFF72AFE801B642811
:100D8000F0D828688003F7D420789A4E80074FF077
:100D900001094FF0000839D5686810F00C0F07D032
:100DA0006868C0F38100022809D16868C00306D4CE
:100DB0002868800714D52069012808D110E020692F
:100DC000B0B1C6F80090FFF703FE074605E00AE160
:100DD000FFF7FEFDC01B0228C4D828688007F7D59E
:100DE0002868616920F0F80040EAC10028600DE041
:100DF000C6F80080FFF7ECFD074604E0FFF7E8FDCA
:100E0000C01B022823D828688007F7D42078000761
:100E10002CD57948A169D9B1C0F80090FFF7D8FD69
:100E2000074604E0FFF7D4FDC01B02280FD8686A0C
:100E30008007F7D571484FF4FA510068B0FBF1F024
:100E4000009000BF0098411E0091FAD20EE080E0B1
:100E5000C0F80080FFF7BCFD074604E0FFF7B8FDCF
:100E6000C01B022875D8686A8007F7D4207840072D
:100E700060D5E8690027C00008D4E86940F08050D8
:100E8000E861E869012700F0805000905C48016843
:100E9000C90513D40168834641F480710160FFF7EE
:100EA00097FD824606E000BFFFF792FDA0EB0A0027
:100EB00064284ED8DBF80000C005F5D5E0680128AD
:100EC0000AD008B1052813D0286A20F00100286252
:100ED000286A20F0040002E0286A40F0010028623D
:100EE000E06841F2883B98B1FFF772FD82460BE063
:100EF000286A40F004002862EEE700BFFFF768FDB3
:100F0000A0EB0A0159455AD8286A8007F6D50CE0AB
:100F1000FFF75EFD824605E0FFF75AFDA0EB0A01F0
:100F200059454CD8286A8007F6D41FB1E86920F0EB
:100F30008050E861E06988B36968C1F381010229E2
:100F400044D00228C6F8608004D0FFF741FD044673
:100F500038E034E0FFF73CFD074604E0FFF738FDDA
:100F6000C01B02282BD828688001F7D4206AB0F56E
:100F7000803F05D16868A16820F4003008436860AC
:100F8000D4E908010843696821F4741108436860D2
:100F9000C6F86090FFF71CFD044606E025E000BFA0
:100FA000FFF716FD001B022809D828688001F7D535
:100FB0001BE000BFFFF70CFD001B022802D9032035
:100FC000BDE8F88F28688001F4D40EE00128F7D03E
:100FD0006868226A00F48031914204D1616A00F4A9
:100FE0007010884201D00120EAE70020E8E7000005
:100FF00000100240000042428004424250000020A3
:1010000000700040704770B5040009D0606A002588
:1010100040B125616561A56294F8510040B10CE0D2
:10102000012070BD6068B0F5827FF4D0E561F2E721
:1010300084F85050204600F03FF8022084F8510018
:101040002068016821F040010160A088218900F436
:10105000827001F404410843A18901F4006108434E
:10106000217C01F002010843217D01F001010843C8
:10107000218B01F400710843217F01F038010843FE
:1010800094F8201001F080010843218D01F40051F3
:10109000084321680860A069042101EA1040216822
:1010A00048602068C16921F40061C1616565012063
:1010B00084F85100002070BD70B586B0002506464A
:1010C000009501950295039500681E49884236D126
:1010D0001D49886940F480508861886900F4805017
:1010E0000490886940F0080088618869694600F0CA
:1010F0000800049028200090022001900320039013
:101100001248FFF76FFB1248416841F0E06141F07F
:1011100001014160104C0F4820601020C4E9010516
:101120008020C4E903052020C4E905502046E5617C
:10113000FFF728FA08B1FFF77BF8B464666206B0DF
:1011400070BD00000030014000100240000C014062
:101150000000014030000240241F00202DE9F04132
:10116000044690F850000026012809D0012784F891
:10117000507094F851000025012804D002264EE05A
:101180000220BDE8F08189B182B1032084F85100CA
:1011900065652163A286E286A56365642564A587EB
:1011A000E587A068B0F5004F02D00BE0012636E0DD
:1011B0002068016821F0400101602068016841F465
:1011C00080410160A16C1848C862A16C1748886210
:1011D000A16C17480863A06C4563E38E2268216BFD
:1011E0000C32A06CFFF7FCF938B1606D40F01000D4
:1011F0006065012684F8517011E020680168490695
:1012000003D4016841F0400101602068416841F069
:10121000200141602068416841F00201416084F88A
:1012200050503046ADE70000992E0008A32E00086C
:10123000772E00087047704710B5401EB0F1807FD0
:1012400001D3012010BD4FF0E02460610F21601731
:1012500003F0C3FE0020A06107202061002010BD24
:1012600070B5040004D094F83900002510B106E0F0
:10127000012070BD84F83850204600F023F8242067
:1012800084F839002068C16821F40051C16020460B
:1012900003F014FE2068016921F490410161206887
:1012A000416921F02A0141612068C16841F400517F
:1012B000C160E563202084F8390084F83A000020FA
:1012C00070BD000030B585B00024009401940294F4
:1012D000039400681449884224D11448816941F478
:1012E00080418161816901F480410491816941F00B
:1012F0000401816180690E4D00F0040004904FF4F8
:101300000070009002200190032003906946284657
:10131000FFF768FA2815CDE90004694628460294CB
:10132000FFF760FA05B030BD003801400010024000
:10133000000801402DE9F843044690F839001F46A3
:1013400016460D4620284CD1C5B1BEB194F83800E0
:10135000012846D0012084F838004FF00008C4F876
:101360003C80212084F83900FFF732FBA6848146B7
:10137000E684A068B0F5805F03D004E00120BDE8FA
:10138000F883206928B12E465FF0000584F8388084
:101390000EE00026FAE78021204603F0EBFDA0B91D
:1013A000AEB116F8010B21684860E08C401EE08465
:1013B000E08C4B464FF0000200970028EBD14FF035
:1013C0004001204603F0D6FD30B10320D7E735F8C1
:1013D000020BC0F30800E6E7202084F83900002063
:1013E000CDE70220CBE7FEE730B50024094D0CE045
:1013F000E8684FF0000384421A4601D2FF2100E062
:101400000021204603F0ACFB641CA8688442EFD3A3
:1014100030BD00000000002030B500240C4D13E06A
:10142000E868844203D200231A46FF2108E02969B4
:101430000844A04201D9FF2300E000230022114606
:10144000204603F08DFB641CA8688442E8D330BDBD
:101450000000002038B50121032003F01FFD134CCC
:1014600000230221E06800902278012001F0BAFDFB
:101470000E21032003F012FDD4E90330184400903C
:1014800062780421032002F043FF0E21032003F0C1
:1014900005FDD4E903301844009062780121022050
:1014A00002F036FFBDE83840FEF772BE00000020B3
:1014B0003EB50321084603F0F1FC154C0023022140
:1014C000E06800902278032002F022FF0821032028
:1014D00003F0E4FCD4E903016278CDE90020014483
:1014E0000523029104220221184601F0E9FD092199
:1014F000032003F0D3FCD4E9033018440090627851
:101500000121022001F0B6FEBDE83E40FEF740BEDC
:10151000000000203EB50421032003F0BFFC214C55
:10152000002102232078E2688DE8070003220721CA
:10153000012003F083F90921032003F0AFFCD4E973
:1015400003301844009062780321042002F0E0FE8A
:101550000721032003F0A2FCD4E9032013186178CB
:10156000012001F0EDFA0D21032003F097FCE36860
:101570000321DA1D02200F3301F016FCE368042179
:1015800003F108020620143301F00EFCE368052184
:1015900003F1090201200D3301F006FCBDE83E40D5
:1015A000FEF7F6BD000000203EB50221032003F047
:1015B00075FC254C002105232078E2688DE80700A2
:1015C00004220321022002F015FD0721032003F06D
:1015D00065FCD4E903010144CDE9000163780322ED
:1015E0000221012003F048F80621032003F056FCF5
:1015F000D4E903016278CDE900200144029103237C
:1016000002220121052002F0AFFB0E21032003F08E
:1016100045FCE3680321DA1D02200F3301F0C4FB0F
:10162000E368042103F108020620143301F0BCFB37
:10163000E368052103F1090201200D3301F0B4FB39
:10164000BDE83E40FEF7A4BD000000203EB50321EA
:10165000084603F023FC2D4C002104232078E26887
:101660008DE8070003220221012002F07DFB062104
:10167000032003F013FCD4E903010144CDE9000188
:10168000637806220521022002F0F6FF08210320DC
:1016900003F004FCD4E903010144CDE900016378BF
:1016A00007220121032002F0E7FF0721032003F0B6
:1016B000F5FBD4E903016278CDE9002001440291F1
:1016C000052303220121042002F04EFB0C210320FC
:1016D00003F0E4FBE3680321DA1D02200F3301F07D
:1016E00063FBE368042103F108020620143301F0D0
:1016F0005BFBE368052103F1090201200D3301F0D2
:1017000053FBBDE83E40FEF743BD00000000002053
:101710003EB50521032003F0C1FB2C4C0023012121
:10172000E06800902278042002F0B0FA0A21032039
:1017300003F0B4FBD4E903016278CDE90020014451
:101740000291052303220221012003F057F90E2103
:10175000032003F0A3FBD4E903010144CDE9000118
:10176000637803220221012002F086FF0D2103206D
:1017700003F094FBD4E903016278CDE90020014431
:101780000291052303220221012002F0EDFA0F212C
:10179000032003F083FBE3680321DA1D02201133E9
:1017A00001F002FBE368042103F108020620133371
:1017B00001F0FAFAE368052103F1090201200D3373
:1017C00001F0F2FABDE83E40FEF7E2BC0000002066
:1017D0003EB50121032003F061FB2B4C00210423C3
:1017E0002078E2688DE8070003220521012001F03E
:1017F00067FC0721032003F051FBD4E903010144F6
:10180000CDE90001637803220221012002F034FFB8
:101810000921032003F042FBD4E903016278CDE9FA
:10182000002001440291022203230521104603F007
:1018300005F80821032003F031FBD4E90320131835
:101840006178052001F07CF90C21032003F026FBD0
:10185000E3680321DA1D02200F3301F0A5FAE368E3
:10186000032103F10A020620143301F09DFAE36814
:10187000052103F1080202200F3301F095FABDE8BB
:101880003E40FEF785BC0000000000203EB502216E
:10189000032003F003FB244C002103232078E2689B
:1018A0008DE8070001220521104602F0C7FF09213B
:1018B000032003F0F3FAD4E903016278CDE90020B4
:1018C00001440291042305220221012003F096F82D
:1018D0000C21032003F0E2FAD4E90330184400900D
:1018E00062780321022001F0C5FC0F21032003F0E0
:1018F000D5FAE3680321DA1D02200F3301F054FA10
:10190000E368042103F1080206200B3301F04CFACE
:10191000E368052103F1090201200D3301F044FAC7
:10192000BDE83E40FEF734BC000000203EB5042177
:10193000032003F0B3FA2B4C002105232078E26842
:101940008DE8070004220321022001F0B9FB0621E3
:10195000032003F0A3FAD4E903010144CDE9000117
:10196000637803220221012002F086FE0721032072
:1019700003F094FAD4E9032013186178022001F0EF
:10198000A7F80A21032003F089FAD4E90301627859
:10199000CDE90020014402910222032311460520D3
:1019A00002F04CFF0D21032003F078FAE3680321D5
:1019B000DA1D02200F3301F0F7F9E368042103F187
:1019C00008020620143301F0EFF9E368052103F162
:1019D000090201200D3301F0E7F9BDE83E40FEF7B2
:1019E000D7BB0000000000203EB50321084603F0ED
:1019F00055FA344C002105232078E2688DE8070071
:101A000004220321022002F0F5FA0621032003F04C
:101A100045FAD4E903010144CDE9000163780322CA
:101A2000022101205B1F02F027FE0721032003F0A3
:101A300035FAD4E9030162780144921ECDE9002011
:101A40000291052301220221032001F0A9FE0821B1
:101A5000032003F023FAD4E903010144CDE9000196
:101A6000637806220521042002F006FE09210320E6
:101A700003F014FAD4E9033018440090627802218C
:101A8000012002F045FC0A21032003F007FAE36875
:101A90000321DA1D02200F3301F086F9E3680421E7
:101AA00003F108020620143301F07EF9E3680521F2
:101AB00003F1090201200D3301F076F9BDE83E4043
:101AC000FEF766BB000000203EB50321084603F088
:101AD000E5F9294C00230521E068009022780120D7
:101AE00001F080FA0821032003F0D8F9D4E90301BA
:101AF0006278CDE9002001440323029102220121F2
:101B0000184601F03BFC0C21032003F0C7F9D4E98F
:101B100003301844009062780321022002F0F8FBA1
:101B20000D21032003F0BAF9D4E9033018440090E2
:101B300062780321022002F0EBFB0F21032003F067
:101B4000ADF9E3680321DA1D02200F3301F02CF90F
:101B5000E368042103F1080206200B3301F024F9A5
:101B6000E368052103F109020120113301F01CF99A
:101B7000BDE83E40FEF70CBB0000002038B5022156
:101B8000032003F08BF90D4C00230421E068009042
:101B90002278032001F026FA0621032003F07EF9C3
:101BA000D4E903301844009062780521042001F044
:101BB00019FABDE83840FEF7EBBA0000000000203B
:101BC0003EB50421032003F069F92D4C00210523C3
:101BD0002078E2688DE8070004220321022002F049
:101BE00009FA0A21032003F059F9D4E903016278C4
:101BF000CDE90020014402910523032202210120A6
:101C000002F0B2F80C21032003F048F9D4E90301F3
:101C10000144CDE90001637803220221052002F08E
:101C20002BFD0D21032003F039F9D4E90301014410
:101C3000CDE90001032263780221104602F01CFD69
:101C40000E21032003F02AF9E3680321DA1D0220A4
:101C50000F3301F0A9F8E368042103F1080206201C
:101C6000143301F0A1F8E368052103F10902012012
:101C70000D3301F099F8BDE83E40FEF789BA000047
:101C8000000000203EB50321084603F007F91B4C75
:101C9000002105232078E2688DE807000322022155
:101CA000012002F0A7F90E21032003F0F7F8D4E990
:101CB00003010144CDE900016378032202210120E0
:101CC00002F0DAFC0C21032003F0E8F8D4E9032049
:101CD00013186178052000F0FBFE0821032003F0B3
:101CE000DDF8D4E903301844009062780321022023
:101CF00001F0CCFFBDE83E40FEF74ABA00000020EC
:101D00003EB50421032003F0C9F8334C002304211D
:101D1000E06800902278022002F0FAFA06210320FF
:101D200003F0BCF8D4E903016278CDE90020014456
:101D30000291052303220221012002F05FFE0C2103
:101D4000032003F0ABF8D4E903010144CDE900011D
:101D5000637803220221052002F08EFC0E2103206D
:101D600003F09CF8D4E903016278CDE90020014436
:101D70000291032205230221104601F0F5FF0D21F7
:101D8000032003F08BF8D4E9033018440090627804
:101D9000052103201E3201F06DFA0F21032003F00C
:101DA0007DF8E3680421DA1D02200B3300F0FCFF0C
:101DB000E368012103F1080206205B1D00F0F4FF37
:101DC000E368052103F1090202200D3300F0ECFF66
:101DD000BDE83E40FEF7DCB9000000203EB5012121
:101DE000032003F05BF8414C002105232078E268D2
:101DF0008DE8070004220321022001F061F9072188
:101E0000032003F04BF8D4E903010144CDE90001BC
:101E1000637803220221012002F02EFC0821032016
:101E200003F03CF8D4E903010144CDE900016378F3
:101E300003220221052002F01FFC0921032003F0E8
:101E40002DF8D4E903301844009062780321022071
:101E500002F05EFA0A21032003F020F8D4E903011E
:101E60000144CDE90001637803220221052002F03C
:101E700003FC0B21032003F011F8D4E90301014412
:101E8000CDE90001637806220221012002F0F4FB73
:101E90000D21032003F002F8D4E903301844009028
:101EA0006278042101201E3201F0E4F90E210320A2
:101EB00002F0F4FFE3680321DA1D02200F3300F083
:101EC00073FFE368042103F108020620143300F0D5
:101ED0006BFFE368052103F1090201200D3300F0D7
:101EE00063FFBDE83E40FEF753B90000000000204C
:101EF0003EB50221032002F0D1FF424C0021052310
:101F00002078E2688DE8070002220121104602F0E5
:101F100095FC0E21032002F0C1FFD4E903301844E0
:101F200000906278042101200A3201F0A3F90E2109
:101F3000032002F0B3FFD4E903010144CDE900011D
:101F4000637801220421052002F096FB0D21032075
:101F500002F0A4FFD4E90330184400906278032112
:101F6000022002F0D5F90821032002F097FFD4E9FE
:101F700003016278CDE90020014402910423032289
:101F80000221052002F030FA0921032002F086FF29
:101F9000D4E903016278CDE90020014402910623CF
:101FA00002220121042002F049FC0C21032002F04E
:101FB00075FFD4E9033018440090627804210120B1
:101FC00001F010F80F21032002F068FFE3680321FD
:101FD000DA1D02200F3300F0E7FEE368042103F16D
:101FE000080206200D3300F0DFFEE368052103F14F
:101FF00009020120103300F0D7FEBDE83E40FEF795
:10200000C7B80000000000203EB50321084602F0DA
:1020100045FF414C00230521E06800902278022012
:1020200001F028F90821032002F038FFD4E9030168
:102030006278CDE9002001440291052303220421A6
:10204000012001F0ADFB0921032002F027FFD4E9B4
:1020500003016278CDE900200144052302910122A9
:102060000421184601F0C6FF0A21032002F016FFE2
:10207000D4E903016278CDE90020014402910123F3
:1020800005220321022002F0D9FB0B21032002F0DC
:1020900005FFD4E903010144CDE90001637803227F
:1020A0000221052002F0E8FA0D21032002F0F6FEDD
:1020B000D4E903301844009062780621022000F031
:1020C00091FF0F21032002F0E9FED4E90320131849
:1020D0006178042000F0FCFC0E21032002F0DEFEFB
:1020E000E3680321DA1D01200F3300F05DFEE36891
:1020F000032103F1080206200D3300F055FEE368CA
:10210000042103F109020120103300F04DFEBDE867
:102110003E40FEF73DB80000000000203EB5022121
:10212000032002F0BBFE4C4C002102232078E26821
:102130008DE8070005220121062001F031FB062170
:10214000032002F0ABFED4E903016278CDE9002060
:1021500001440291052303220421012002F06EFBB9
:102160000721032002F09AFED4E9032013186178B6
:10217000052000F0E5FC0821032002F08FFED4E9E1
:1021800003301844009062780321022001F072F8B5
:102190000821032002F082FED4E903016278CDE930
:1021A000002001440291042303220221052001F0B2
:1021B000DBFD0921032002F071FED4E90301014493
:1021C000CDE90001637801220521062002F054FACE
:1021D0000721032002F062FED4E90320131861787E
:1021E000022000F0ADFC0A21032002F057FED4E9E2
:1021F00003301844009062780421012000F0F2FEC0
:102200000F21032002F04AFED4E903301844009065
:1022100062780421012001F02DF80E21032002F044
:102220003DFEE368042103F10F020520DB1D00F0F1
:10223000BBFDE3680221DA1C01200E3300F0B4FD7F
:10224000E368052103F109020120103300F0ACFD21
:10225000BDE83E40FDF79CBF000000203EB50321D5
:10226000084602F01BFE4D4C002105232078E26851
:102270008DE8070002220121062001F075FD0621EC
:10228000032002F00BFED4E903301844009062787A
:102290000521012000F0A6FE0621032002F0FEFD2C
:1022A000D4E9032013186178022000F049FC0C21C6
:1022B000032002F0F3FDD4E9033018440090627863
:1022C0000321022001F0E2FC0821032002F0E6FDD8
:1022D000D4E903016278CDE900200144029104238E
:1022E00003220221052001F049F80A21032002F00F
:1022F000D5FDD4E903010144CDE900016378012251
:102300000521062002F0B8F90E21032002F0C6FDD7
:10231000D4E903301844009062780621022000F0CE
:10232000A9FF0D21032002F0B9FDD4E903301844C0
:10233000009062780421012001F0EAFF0F210320C0
:1023400002F0ACFDD4E903016278CDE9002001443C
:102350000291032305220421012001F005FD06213D
:10236000032002F09BFDE368022103F10F02052028
:10237000DB1C00F019FDE36805219A1D01200C33D8
:1023800000F012FDE368062103F109020120133376
:1023900000F00AFDBDE83E40FDF7FABE0000002057
:1023A0003EB50421032002F079FD334C00210523C2
:1023B0002078E2688DE8070002220121042002F063
:1023C0003DFA0E21032002F069FDD4E90301627891
:1023D000CDE90020014402910523032202210120BE
:1023E00002F00CFB0D21032002F058FDD4E903019B
:1023F0006278CDE9002001440291042303220221E6
:10240000052001F0D3FE0821032002F047FDD4E9A6
:10241000032013186178032000F05AFB0A210320DF
:1024200002F03CFDD4E903301844009062780521A5
:1024300003200A3200F01EFF0F21032002F02EFDC0
:10244000E3680321DA1D02200F3300F0ADFCE368DE
:10245000042103F10C020620143300F0A5FCE3680C
:10246000052103F1090201200D3300F09DFCBDE8B8
:102470003E40FDF78DBE0000000000203EB5022169
:10248000032002F00BFD324C00230521E068009090
:102490002278042001F0FAFB0B21032002F0FEFC5D
:1024A000D4E903016278CDE90020014402910523BB
:1024B00003220221012000F061FF0D21032002F020
:1024C000EDFCD4E903301844009062780321052024
:1024D00001F01EFF0F21032002F0E0FCD4E90330DD
:1024E0001844009062780221032000F0C3FE082106
:1024F000032002F0D3FCD4E903016278CDE9002087
:1025000001440291052301220221032001F048F930
:102510000E21032002F0C2FCE3680321DA1D022031
:102520000F3300F041FCE368042103F108020620A8
:10253000143300F039FCE368052103F1090201209E
:102540000D3300F031FCBDE83E40FDF721BE000038
:10255000000000203EB50421032002F09FFC194C2E
:1025600000230621E06800902278052000F03AFD63
:102570000721032002F092FCD4E903016278CDE93F
:10258000002001440291032302220621052002F0CB
:1025900055F90821032002F081FCE368042103F1CE
:1025A000080206200E3300F0FFFBE368052103F16B
:1025B000090201200D3300F0F7FBBDE83E40FDF7B6
:1025C000E7BD0000000000203EB50421032002F01A
:1025D00065FC334C002105232078E2688DE8070074
:1025E00001220321022001F005FD0821032002F051
:1025F00055FCD4E90330184400906278032102208E
:1026000001F086FE0721032002F048FCD4E9030113
:102610006278CDE9002001440291042303220221C3
:10262000052002F0EBF90321084602F037FCD4E95B
:1026300003016278CDE900200144029103220423C2
:102640000221104601F0D0FE0A21032002F026FCF0
:10265000D4E903301844009062780321012000F08F
:10266000C1FC0B21032002F019FCE3680121DA1DF3
:1026700002200F3300F098FBE368042103F1080205
:102680000520143300F090FBE368022103F10902F6
:1026900001200D3300F088FBBDE83E40FDF778BD1A
:1026A0000000002038B50221032002F0F7FB174C90
:1026B00000230521E06800902278012001F028FE27
:1026C0000F21032002F0EAFBD4E903301844009004
:1026D00062780321022000F085FC0E21032002F025
:1026E000DDFBE368042103F10A020620123300F047
:1026F0005BFBE368012103F1090204200F3300F0C2
:1027000053FBBDE83840FDF743BD0000000000204A
:102710003EB50221032002F0C1FB274C0023052116
:10272000E06800902278012001F0F2FD0B210320E7
:1027300002F0B4FBD4E903016278CDE90020014442
:102740000423029105221146184602F057F9D4E9F4
:1027500003016278CDE9002001440423029105229F
:102760001146184602F04AF90F21032002F096FBA9
:10277000E3680321DA1D02200F3300F015FBE36844
:10278000042103F1080206200E3300F00DFBE3687C
:10279000052103F1090201200D3300F005FBE36878
:1027A000052103F10F020120143300F0FDFABDE80A
:1027B0003E40FDF7EDBC0000000000203EB50221C8
:1027C000032002F06BFB154C00230421E06800900D
:1027D0002278022000F006FC0B21032002F05EFBB1
:1027E000D4E903016278CDE9002001440291052378
:1027F00004220321022002F001F90B21032002F040
:102800004DFBD4E903301844009062780521022082
:1028100001F07EFDBDE83E40FDF7BABC000000209F
:102820001CB50321084602F039FB274C0023022186
:10283000E06800902278012000F0D4FB09210320F9
:1028400002F02CFBD4E903010144CDE900016378D7
:1028500004220321022001F00FFF0B21032002F0CC
:102860001DFBD4E903010144CDE90001637807228F
:102870000621052001F000FF0F21032002F00EFBCE
:10288000E368042103F1080206200E3300F08CFAFD
:10289000E368052103F1090201200D3300F084FAF9
:1028A000E368022103F10C0205200F3300F07CFAEB
:1028B000E368032103F10D020120113300F074FAE3
:1028C000BDE81C40FDF764BC000000203EB50321BC
:1028D000084602F0E3FA194C00230721E068009053
:1028E0002278062000F07EFB0A21032002F0D6FAAF
:1028F000D4E903016278CDE9002001440291052367
:1029000004220321022001F099FF0C21032002F090
:10291000C5FAD4E9033018440090627805210420F8
:1029200000F060FBE3680321DA1D02200F3300F0A2
:102930003BFABDE83E40FDF72BBC00000000002044
:102940003EB50521032002F0A9FA264C00210423FC
:102950002078E2688DE8070003220521012001F0BC
:102960006DFF0E21032002F099FAD4E90301627889
:10297000CDE9002001440291032304220121022019
:1029800002F03CF80D21032002F088FAD4E903019B
:102990006278CDE90020014402910523022204213E
:1029A000062002F02BF80C21032002F077FAE368EE
:1029B0000321DA1D02200F3300F0F6F9E368042149
:1029C00003F1080206200E3300F0EEF9E36805215A
:1029D00003F1090201200D3300F0E6F9BDE83E40A5
:1029E000FDF7D6BB00000020F0B5002184250F4A7A
:1029F000212608274FF0420C4FF0100EC1EB0114B6
:102A00005FF0000000EB80032344401CD5541344C6
:102A100003285E709F7083F803C083F804E0F1DB45
:102A2000491CB1F5007FE9DBF0BD0000FC0000208F
:102A300000B585B00020019003901148816941F0F4
:102A400020018161816901F020010491816941F0D7
:102A500004018161816901F004010491816941F0FF
:102A6000080181618069694600F008000490072030
:102A70000090012002900348FDF7B4FE05B000BDB0
:102A800000100240000801400F4810B50D490160D8
:102A90004FF48271416000218160C1604FF4007287
:102AA0000161C0E905122022C0E90721416281626B
:102AB0000A21C162FEF7A7FA002801D072B6FEE72C
:102AC00010BD00000030014064000020FEE700005F
:102AD0002DE9F0411D460F460646144615E000BF9D
:102AE000FFF782FF082E0CD2DFE806F00B04061970
:102AF0001C1E222500231CE0002316E0204602F0C5
:102B00002FF83846FDF7A4FD641CAC42E8D3AB1E99
:102B10006A1EBDE8F0410321022000F045B9FF2301
:102B2000002203E0002307E0FF23FF220021E5E766
:102B3000FF23002201E0FF23FF22FF21DEE7000048
:102B40002DE9F04715468946064614464FF007081A
:102B500003F13E0711E100BFFFF746FF05F10A0050
:102B6000844215D9B11DB1FBF8F308FB1311A4F190
:102B70000B0008290CD2DFE801F00B04061E21230C
:102B8000272A002321E000231BE000BF01F0E8FF1B
:102B900005F11400844225D9711DB1FBF8F308FB3F
:102BA0001311A4F1150008291CD2DFE801F01B1451
:102BB000162E3133373AFF23002203E0002307E0CB
:102BC000FF23FF220021E1E7FF23002201E0FF2392
:102BD000FF22FF21DAE7002321E000231BE000BFF2
:102BE00001F0BEFF05F11E00844225D9311DB1FB65
:102BF000F8F308FB1311A4F11F0008291CD2DFE829
:102C000001F01B14162E3133373AFF23002203E064
:102C1000002307E0FF23FF220021E1E7FF2300223A
:102C200001E0FF23FF22FF21DAE7002321E0002358
:102C30001BE000BF01F094FF05F12800844225D974
:102C4000F11CB1FBF8F308FB1311A4F129000829CA
:102C50001CD2DFE801F01B14162E3133373AFF2364
:102C6000002203E0002307E0FF23FF220021E1E729
:102C7000FF23002201E0FF23FF22FF21DAE70023E8
:102C800021E000231BE000BF01F06AFF05F13200E4
:102C9000844225D9B11CB1FBF8F308FB1311A4F150
:102CA000330008291CD2DFE801F01B14162E313343
:102CB000373AFF23002203E0002307E0FF23FF222F
:102CC0000021E1E7FF23002201E0FF23FF22FF2193
:102CD000DAE7002321E000231BE000BF01F040FF02
:102CE00005F13C00844225D9711CB1FBF8F308FBC7
:102CF0001311A4F13D0008291CD2DFE801F01B14D8
:102D0000162326282C2FFF23002203E0002307E0B0
:102D1000FF23FF220021E1E7FF23002201E0FF2340
:102D2000FF22FF21DAE7002316E0002310E000BFB6
:102D300001F016FF082E1CD2DFE806F01B14162443
:102D400027292D30FF23002203E0002307E0FF2383
:102D5000FF220021ECE7FF23002201E0FF23FF22F6
:102D6000FF21E5E7002317E0002311E0204601F0F2
:102D7000F7FE4846FDF76CFC641CBC42FFF4ECAE69
:102D8000BDE8F087FF23002203E0002307E0FF23D4
:102D9000FF220021EAE7FF23002201E0FF23FF22B8
:102DA000FF21E3E7FEE700002DE9F0411F469046D2
:102DB0000E4605465FF00004FFF716FE082D0CD204
:102DC000DFE805F00B04061C1F21252800231FE067
:102DD000002319E0384601F0C3FE3220FDF738FC2D
:102DE00000231A461946384601F0BAFE082E27D2AB
:102DF000DFE806F026141E203436393CFF2300227B
:102E000003E0002307E0FF23FF220021E2E7FF2386
:102E1000002201E0FF23FF22FF21DBE700231A4607
:102E2000FF21404601F09CFE6420FDF711FC07E005
:102E3000002316E0FF2300220021404601F090FE0F
:102E40003220FDF705FC00231A461946404601F0E2
:102E500087FE641C052CAFDBBDE8F081002306E093
:102E6000FF23FF22E8E7FF23002201E0FF23FF22E8
:102E7000FF21E2E7704710B5406A01684A6822F016
:102E800003024A60416D41F010014165012180F863
:102E90005110FEF7B7F810BD10B5406AFEF7CBF938
:102EA00010BD38B50546446AFDF792FD0246286814
:102EB0000068800623D42068416821F02001416029
:102EC0002068416821F0020141606421204600F041
:102ED0001AF818B1606D40F020006065A06800210C
:102EE00018B92068C26880680090E186012084F8E3
:102EF0005100606D18B12046FEF784F838BD2046B9
:102F0000FEF798F938BD38B50B460092044600220A
:102F1000802100F009F8002804D0606D40F0200006
:102F20006065032038BD00002DE9F8431E46914638
:102F300088460446089DFDF74BFD401B351AFDF7FA
:102F400047FD074625480068C0F3CB30684338E0AA
:102F5000701C37D0FDF73CFDC01BA84203D215B151
:102F6000009860B32CE02068416821F0E0014160E6
:102F70006068B0F5827F0BD1A068B0F5004F02D039
:102F8000B0F5806F04D12068016821F04001016034
:102F9000A06AB0F5005F09D12068016821F40051F2
:102FA00001602068016841F400510160012084F84B
:102FB0005100002084F850000320BDE8F88300256C
:102FC000401E00902068816838EA010004D000218A
:102FD0004945BDD10020F0E70121F9E7500000206C
:102FE000704700002DE9FF5F1D46DDF838A01F4641
:102FF000DFF8C8B00AF1100931E000BFFFF7F4FCB8
:103000000F242E4605F1100823E0B81B23D4AAEBA9
:103010000501884201D3641E1AE0AE4201D0009936
:1030200000E00199082913D2DFE801F012040A1D1B
:10303000232C353E00231BF8041028441A4604E0D4
:103040001BF804202844002311E0641E01F088FDD1
:10305000761C4645D9D30298FDF7FAFA7F1C4F45F6
:10306000CCD3BDE8FF9F1BF8043028440022002188
:10307000EBE71BF80420641E0BEB0401284449789D
:103080000023E3E71BF80430641E0BEB0401284423
:103090004A780021DAE71BF80430641E0BEB0401C8
:1030A000284449780022D1E71BF80430641E0BEB5A
:1030B000040128448A784978C8E7000024000020E9
:1030C0002DE9FF5FDDE90F402546A0EB040A04F17E
:1030D000100600F1230996E0FFF786FC4FF00F0879
:1030E000B5422ED9A5F1130B274628E0BBEB07000C
:1030F00027D4504502D3A8F101081FE0A74201D10F
:10310000039900E00199082918D2DFE801F01704BB
:103110000C1E26303A4456492044002311F808106A
:10312000A8F1010835E052492044002311F8082095
:10313000A8F1010823E000BF01F012FD7F1CB74297
:10314000D4D34FF00F08274657E0494920440022C6
:1031500011F80830A8F1010811E045492044002386
:1031600011F80820A8F1010841444978E4E74049F2
:10317000204411F80830A8F1010841444A780021A0
:10318000DAE73B49204411F80830A8F1010841442E
:1031900049780022D0E73649204411F80830A8F1D8
:1031A000010841448A784978C6E7E81B27D450458E
:1031B00002D3A8F101081FE0A74201D1029900E063
:1031C0000099082918D2DFE801F017040C232B35E9
:1031D0003F4927492044002311F80810A8F10108AD
:1031E0003AE023492044002311F80820A8F10108FF
:1031F00028E000BF01F0B4FC7F1CB742D5D30E9885
:10320000FDF726FA6D1C4D45FFF466AFBDE8FF9F44
:1032100017492044002211F80830A8F1010811E0F4
:1032200013492044002311F80820A8F10108414463
:103230004978DFE70E49204411F80830A8F1010869
:1032400041444A780021D5E70949204411F8083063
:10325000A8F10108414449780022CBE70449204401
:1032600011F80830A8F1010841448A784978C1E78B
:10327000240000202DE9FF5F98460E9E1F46DFF8D0
:10328000F8B006F1020A30E0FFF7AEFB0124454634
:1032900008F1020923E0781B23D4A6EB0801884239
:1032A00001D3641E1AE0454501D1019900E000995F
:1032B000082913D2DFE801F012040A353B444D56C9
:1032C00000231BF8041040441A4604E01BF80420B5
:1032D0004044002329E0641E01F042FC6D1C4D4572
:1032E000D9D30298FDF7B4F97F1C5745CCD3FFF72B
:1032F0007BFB002400231A46FF21701E01F030FCE6
:103300003220FDF7A5F900231A461946701E01F078
:1033100027FC3220FDF79CF9641C052CEADBBDE894
:10332000FF9F1BF80430404400220021D3E71BF824
:103330000420641E0BEB0401404449780023CBE7D2
:103340001BF80430641E0BEB040140444A78002152
:10335000C2E71BF80430641E0BEB040140444978BB
:103360000022B9E7044A1BF804301232641E4044BC
:10337000125D1BF80410AFE7020000202DE9FF4F9B
:1033800081B0DDE90F4B2546ABEB0409A61C0BF120
:10339000230ACAE1FFF728FB04F10A004FF00108F5
:1033A00085422ED9A5F10C002746009027E0009811
:1033B000C01B26D4484502D3A8F101081EE0A7424D
:1033C00001D0029900E00399082917D2DFE801F043
:1033D00016040C242C36404AF0492044002311F8EE
:1033E0000810A8F101083BE0EC492044002311F843
:1033F0000820A8F1010829E001F0B2FB7F1CB742C8
:10340000D5D304F10F004FF0010885425FD9A5F133
:1034100011002746009058E0E0492044002211F8AE
:103420000830A8F1010811E0DC492044002311F81C
:103430000820A8F1010841444978DDE7D749204434
:1034400011F80830A8F1010841444A780021D3E777
:10345000D249204411F80830A8F1010841444978C4
:103460000022C9E7CD49204411F80830A8F101082D
:1034700041448A784978BFE70098C01B27D4484563
:1034800002D3A8F101081FE0A74201D0029900E091
:103490000499082918D2DFE801F017040C252D370C
:1034A000414BBE492044002311F80810A8F101083F
:1034B0003CE0BA492044002311F80820A8F1010893
:1034C0002AE000BF01F04CFB7F1CB742D4D304F1CB
:1034D00014004FF0010885425FD9A5F11600274678
:1034E000009058E0AD492044002211F80830A8F1BE
:1034F000010811E0A9492044002311F80820A8F18F
:10350000010841444978DDE7A449204411F8083016
:10351000A8F1010841444A780021D3E79F4920449B
:1035200011F80830A8F10108414449780022C9E7A0
:103530009A49204411F80830A8F1010841448A78DA
:103540004978BFE70098C01B27D4484502D3A8F1AB
:1035500001081FE0A74201D0049900E00199082961
:1035600018D2DFE801F017040C252D37414B8B49A9
:103570002044002311F80810A8F101083CE0874915
:103580002044002311F80820A8F101082AE000BF18
:1035900001F0E6FA7F1CB742D4D304F11E004FF0CD
:1035A000010885425FD9A5F120002746009058E028
:1035B0007A492044002211F80830A8F1010811E0EE
:1035C00076492044002311F80820A8F1010841445D
:1035D0004978DDE77149204411F80830A8F1010865
:1035E00041444A780021D3E76C49204411F808305F
:1035F000A8F10108414449780022C9E767492044FD
:1036000011F80830A8F1010841448A784978BFE7E9
:103610000098C01B27D4484502D3A8F101081FE039
:10362000A74201D0039900E00499082918D2DFE8E5
:1036300001F017040C1E26303A4458492044002358
:1036400011F80810A8F1010835E05449204400237E
:1036500011F80820A8F1010823E000BF01F080FA6A
:103660007F1CB742D4D34FF00108274657E04B499F
:103670002044002211F80830A8F1010811E0474960
:103680002044002311F80820A8F10108414449789A
:10369000E4E74249204411F80830A8F10108414408
:1036A0004A780021DAE73D49204411F80830A8F1B2
:1036B0000108414449780022D0E73849204411F8F4
:1036C0000830A8F1010841448A784978C6E7E81B28
:1036D00027D4584502D3A8F101081FE0A74201D022
:1036E000019900E00399082918D2DFE801F01704D6
:1036F0000C242C36424C29492044002311F8081090
:10370000A8F101083DE025492044002311F80820D4
:10371000A8F101082BE000BF01F022FA7F1CB7429C
:10372000D5D30E98FCF794FF6D1C5545FFF432AECF
:1037300005B0BDE8F08F19492044002211F8083087
:10374000A8F1010813E015492044002311F80820CE
:10375000A8F1010841444978DEE7104920448A1C59
:1037600011F80830A8F1010802EB08014A7800219D
:10377000D2E70A49204411F80830A8F10108414471
:1037800049780022C8E70549204411F80830A8F11B
:10379000010841448A784978BEE700000200002011
:1037A0002DE9FF4F81B0DDE90F4B2546ABEB040956
:1037B000A61C0BF1140A2EE2FFF716F9E01C4FF0DD
:1037C000010885422DD9281F2746009027E0009840
:1037D000C01B26D4484502D3A8F101081EE0A74229
:1037E00001D0029900E00399082917D2DFE801F01F
:1037F00016040C232B353F49FD492044002311F8C2
:103800000810A8F101083AE0F9492044002311F812
:103810000820A8F1010828E001F0A2F97F1CB742B6
:10382000D5D3A01D4FF0010885425ED9A5F108004F
:103830002746009057E0EE492044002211F8083056
:10384000A8F1010811E0EA492044002311F80820FA
:10385000A8F1010841444978DEE7E549204411F820
:103860000830A8F1010841444A780021D4E7E04932
:10387000204411F80830A8F1010841444978002299
:10388000CAE7DB49204411F80830A8F10108414497
:103890008A784978C0E70098C01B26D4484502D3EF
:1038A000A8F101081EE0A74201D0029900E00499A6
:1038B000082917D2DFE801F016040C242C36404A00
:1038C000CB492044002311F80810A8F101083BE07F
:1038D000C7492044002311F80820A8F1010829E075
:1038E00001F03EF97F1CB742D5D304F108004FF038
:1038F000010885425FD9A5F10C002746009058E0E9
:10390000BB492044002211F80830A8F1010811E059
:10391000B7492044002311F80820A8F101084144C8
:103920004978DDE7B249204411F80830A8F10108D0
:1039300041444A780021D3E7AD49204411F80830CA
:10394000A8F10108414449780022C9E7A849204468
:1039500011F80830A8F1010841448A784978BFE796
:103960000098C01B27D4484502D3A8F101081FE0E6
:10397000A74201D0049900E00199082918D2DFE894
:1039800001F017040C252D37414B994920440023A1
:1039900011F80810A8F101083CE0954920440023E3
:1039A00011F80820A8F101082AE000BF01F0D8F8BA
:1039B0007F1CB742D4D304F10A004FF001088542BE
:1039C0005FD9A5F10F002746009058E088492044B0
:1039D000002211F80830A8F1010811E084492044C0
:1039E000002311F80820A8F1010841444978DDE7D7
:1039F0007F49204411F80830A8F1010841444A7871
:103A00000021D3E77A49204411F80830A8F10108D1
:103A1000414449780022C9E77549204411F808302B
:103A2000A8F1010841448A784978BFE70098C01B93
:103A300027D4484502D3A8F101081FE0A74201D0CE
:103A4000039900E00499082918D2DFE801F017046F
:103A50000C252D37414B66492044002311F80810EE
:103A6000A8F101083CE062492044002311F8082035
:103A7000A8F101082AE000BF01F072F87F1CB742EC
:103A8000D4D304F10C004FF0010885425FD9A5F1B1
:103A900013002746009058E055492044002211F8B1
:103AA0000830A8F1010811E051492044002311F821
:103AB0000820A8F1010841444978DDE74C49204439
:103AC00011F80830A8F1010841444A780021D3E7F1
:103AD0004749204411F80830A8F1010841444978C9
:103AE0000022C9E74249204411F80830A8F1010832
:103AF00041448A784978BFE70098C01B27D44845DD
:103B000002D3A8F101081FE0A74201D0029900E00A
:103B10000399082918D2DFE801F017443A30261E2D
:103B20000C0433492044002311F80810A8F10108BF
:103B300035E02F492044002311F80820A8F101089E
:103B400023E000BF01F00CF87F1CB742D4D34FF044
:103B50000108274659E026492044002211F8083080
:103B6000A8F1010811E022492044002311F808209F
:103B7000A8F1010841444978E4E71D49204411F8BF
:103B80000830A8F1010841444A780021DAE71849D1
:103B9000204411F80830A8F1010841444978002276
:103BA000D0E71349204411F80830A8F10108414436
:103BB0008A784978C6E7E81B29D4584502D3A8F18A
:103BC000010821E0A74201D0019900E003990829EA
:103BD0001AD2DFE801F019040F262E38444E0449AA
:103BE0002044002311F80810A8F101083FE000006C
:103BF0000200002024492044002311F80820A8F1E5
:103C000001082AE000F0ACFF7F1CB742D3D30E9826
:103C1000FCF71EFD6D1C5545FFF4CEAD05B0BDE8AB
:103C2000F08F19492044002211F80830A8F101084A
:103C300013E015492044002311F80820A8F10108D9
:103C400041444978DEE7104920448A1C11F80830C5
:103C5000A8F1010802EB08014A780021D2E70A49DD
:103C6000204411F80830A8F10108414449780022A5
:103C7000C8E70549204411F80830A8F1010841447B
:103C80008A784978BEE70000020000202DE9FF5F36
:103C90001D46DDF838A01F46DFF8C8B00AF1040958
:103CA00031E000BFFEF7A0FE03242E4605F1040814
:103CB00023E0B81B23D4AAEB0501884201D3641E7C
:103CC0001AE0AE4201D1019900E00099082913D20F
:103CD000DFE801F012040A1D232C353E00231BF8F7
:103CE000041028441A4604E01BF80420284400234A
:103CF00011E0641E00F034FF761C4645D9D30298CB
:103D0000FCF7A6FC7F1C4F45CCD3BDE8FF9F1BF8FA
:103D10000430284400220021EBE71BF80420641E35
:103D20000BEB0401284449780023E3E71BF8043037
:103D3000641E0BEB040128444A780021DAE71BF8E3
:103D40000430641E0BEB0401284449780022D1E7BB
:103D5000044A1BF804301032641E2844125D1BF81C
:103D60000410C7E7040000202DE9FF4F81B0DDE912
:103D70000F4BABEB04002546271D0BF1140A0090F6
:103D8000FFE000BFFEF730FE4FF00308BD422ED922
:103D9000A5F10609264628E0B9EB060027D40099CC
:103DA000884202D3A8F101081EE0A64201D0029980
:103DB00000E00499082917D2DFE801F016040C236B
:103DC0002B353F498A492044002311F80810A8F1F7
:103DD00001083AE086492044002311F80820A8F1A0
:103DE000010828E000F0BCFE761CBE42D4D304F1EA
:103DF0000E004FF0030885425FD9A5F11009264651
:103E000059E07B492044002211F80830A8F101084C
:103E100011E077492044002311F80820A8F1010897
:103E200041444978DEE77249204411F80830A8F18E
:103E3000010841444A780021D4E76D49204411F833
:103E40000830A8F10108414449780022CAE76849CE
:103E5000204411F80830A8F1010841448A784978D3
:103E6000C0E700BFB9EB060027D40099884202D30F
:103E7000A8F101081EE0A64201D0019900E00499D2
:103E8000082917D2DFE801F016453B31271F0C0443
:103E900057492044002311F80810A8F1010836E022
:103EA00053492044002311F80820A8F1010824E018
:103EB00000F056FE761CBE42D4D34FF003082646CF
:103EC00004F1030957E04A492044002211F8083060
:103ED000A8F1010811E046492044002311F8082008
:103EE000A8F1010841444978E2E74149204411F82A
:103EF0000830A8F1010841444A780021D8E73C493C
:103F0000204411F80830A8F1010841444978002202
:103F1000CEE73749204411F80830A8F101084144A0
:103F20008A784978C4E7A81B27D4584502D3A8F15A
:103F300001081FE0A64201D0019900E00399082979
:103F400018D2DFE801F017040C242C36404A284927
:103F50002044002311F80810A8F101083BE024498F
:103F60002044002311F80820A8F1010829E000BF2F
:103F700000F0F6FD761C4E45D5D30E98FCF768FB95
:103F80006D1C5545FFF4FEAE05B0BDE8F08F184935
:103F90002044002211F80830A8F1010811E014496A
:103FA0002044002311F80820A8F101084144497871
:103FB000DEE70F49204411F80830A8F10108414418
:103FC0004A780021D4E70A49204411F80830A8F1C2
:103FD0000108414449780022CAE70549204411F804
:103FE0000830A8F1010841448A784978C0E7000008
:103FF000040000202DE9FF5FDDE90F4B2546271D5A
:104000000BF10A0A9BE000BFFEF7EEFC4FF003083D
:10401000BD4230D9A5F1060926462AE0B9EB0600D3
:1040200029D4ABEB0401884202D3A8F101081FE0B8
:10403000A64201D0009900E00199082918D2DFE8D2
:1040400001F017323C460428200C57492044002335
:1040500011F80810A8F1010837E053492044002363
:1040600011F80820A8F1010825E000BF00F078FD54
:10407000761CBE42D2D34FF00308264604F1030952
:1040800057E049492044002211F80830A8F10108FE
:1040900011E045492044002311F80820A8F1010847
:1040A00041444978E2E74049204411F80830A8F13A
:1040B000010841444A780021D8E73B49204411F8DF
:1040C0000830A8F10108414449780022CEE736497A
:1040D000204411F80830A8F1010841448A78497851
:1040E000C4E7A81B27D4584502D3A8F101081FE054
:1040F000A64201D0009900E00399082918D2DFE810
:1041000001F017040C232B353F4927492044002395
:1041100011F80810A8F101083AE0234920440023CF
:1041200011F80820A8F1010828E000BF00F018FDF0
:10413000761C4E45D5D30E98FCF78AFA6D1C554572
:10414000FFF462AFBDE8FF9F17492044002211F839
:104150000830A8F1010811E013492044002311F8A8
:104160000820A8F1010841444978DFE70E492044BE
:1041700011F80830A8F1010841444A780021D5E738
:104180000949204411F80830A8F101084144497850
:104190000022CBE70449204411F80830A8F10108B7
:1041A00041448A784978C1E7040000202DE9FF5F87
:1041B000DDE90F5B2F460BF1080A76E0FEF714FCF1
:1041C00007242E4605F1080869E000BFB7EB060991
:1041D00067D4ABEB0500814501D3641E5EE0AE42BF
:1041E00001D0009800E00298082813D2DFE800F020
:1041F00012040A161C242C3444480023015D09EBE8
:10420000050027E041480023025D09EB050019E0A5
:1042100000F0A6FCAE4226D0019825E03B480022E3
:10422000035D09EB05000DE038480023025D2044E2
:10423000417809EB0500EBE73448035D2044427800
:1042400009EB05000021E3E73048035D2044417895
:1042500009EB05000022DBE72C48015D09EB0500B6
:104260000B461A46D4E70398082817D2DFE800F077
:1042700016040B2128313A43244800231A46015DD5
:1042800009EB050005E021480023025D09EB05006C
:1042900014E00830B4F1010400F062FC761C4645DD
:1042A00094D30E98FCF7D4F97F1C574586D3BDE80C
:1042B000FF9F16480022035D09EB05000021E8E797
:1042C0001248025D641E20440023417809EB05007A
:1042D00019E00E48035D641E20440021427809EB7A
:1042E000050010E00948035D641E20440022417867
:1042F00009EB050007E00548035D641E2044827851
:10430000417809EB05000830C6E7000004000020F2
:104310002DE9FF5F1D46DDF838A01F46DFF8C4B069
:104320000AF1080931E000BFFEF75EFB07242E46C4
:1043300005F1080823E0B81B23D4AAEB0501884245
:1043400001D3641E1AE0AE4201D1019900E0009948
:10435000082913D2DFE801F012040A1D232C353E90
:1043600000231BF8041028441A4604E01BF804201C
:104370002844002311E0641E00F0F2FB761C464541
:10438000D9D30298FCF764F97F1C4F45CCD3BDE824
:10439000FF9F1BF80430284400220021EBE71BF8A4
:1043A0000420641E0BEB0401284449780023E3E752
:1043B0001BF80430641E0BEB040128444A780021EA
:1043C000DAE71BF80430641E0BEB0401284449783B
:1043D0000022D1E71BF80430641E28441BF80410A7
:1043E0000A46C9E7140000202DE9FF4F81B0DDE93E
:1043F0000F4BABEB0400254604F108070BF11A0A3A
:104400000090FEE0FEF7F0FA4FF00708BD422ED90B
:10441000A5F10A09264628E0B9EB060027D4009941
:10442000884202D3A8F101081EE0A64201D00299F9
:1044300000E00499082917D2DFE801F016040C23E4
:104440002B353F498B492044002311F80810A8F16F
:1044500001083AE087492044002311F80820A8F118
:10446000010828E000F07CFB761CBE42D4D304F1A6
:1044700010004FF0070885425FD9A5F112092646C2
:1044800059E07C492044002211F80830A8F10108C5
:1044900011E078492044002311F80820A8F1010810
:1044A00041444978DEE77349204411F80830A8F107
:1044B000010841444A780021D4E76E49204411F8AC
:1044C0000830A8F10108414449780022CAE7694947
:1044D000204411F80830A8F1010841448A7849784D
:1044E000C0E700BFB9EB060027D40099884202D389
:1044F000A8F101081EE0A64201D0019900E004994C
:10450000082917D2DFE801F016453B31271F0C04BC
:1045100058492044002311F80810A8F1010836E09A
:1045200054492044002311F80820A8F1010824E090
:1045300000F016FB761CBE42D4D34FF00708264687
:1045400004F1070957E04B492044002211F80830D4
:10455000A8F1010811E047492044002311F8082080
:10456000A8F1010841444978E2E74249204411F8A2
:104570000830A8F1010841444A780021D8E73D49B4
:10458000204411F80830A8F101084144497800227C
:10459000CEE73849204411F80830A8F10108414419
:1045A0008A784978C4E7A81B27D4584502D3A8F1D4
:1045B00001081FE0A64201D0019900E003990829F3
:1045C00018D2DFE801F017040C242C39434D294997
:1045D0002044002311F80810A8F101083EE0254905
:1045E0002044002311F80820A8F101082CE000BFA6
:1045F00000F0B6FA761C4E45D5D30E98FCF728F895
:104600006D1C5545FFF4FEAE05B0BDE8F08F1949AD
:104610002044002211F80830A8F1010814E01549DF
:10462000204401F1100311F80820A8F1010803EB60
:10463000080100234978DBE70E49204411F80830CF
:10464000A8F1010841444A780021D1E709492044F2
:1046500011F80830A8F10108414449780022C7E761
:104660000449204411F80830A8F1010841448A782F
:104670004978BDE7140000202DE9FF5FDDE90E5BFE
:104680002F460BF1080AA7E0FEF7AEF907242E46E5
:1046900005F1080999E000BFB7EB060874D4ABEB4D
:1046A0000501884501D3641E8EE00098082813D2C6
:1046B000DFE800F012040A1B21282F365E48002391
:1046C000015D08EB050029E05B480023025D08EB73
:1046D00005001CE000F044FA0198082836D2DFE813
:1046E00000F035262C3E444C545B53480022035DB9
:1046F00008EB05000BE050480023015D08EB0500C6
:104700000A46E7E74C48025D08EB05001346002126
:10471000E0E74948015D08EB05000B460022D9E7B8
:104720004548015D08EB05000B461A46D2E74248B2
:104730000023015D08EB05002CE03F480023025DEB
:1047400008EB05001EE0401D00F00AFA0298082858
:104750003AD2DFE800F039282F464D565E663648DB
:104760000022035D08EB05000CE03348025D1038C1
:104770000023015D08EB0500E5E72F48025D08EB2B
:10478000050013460021DEE722E02B48015D08EB1F
:1047900005000B460022D6E72748015D08EB05001F
:1047A0000B461A46CFE7244800231A46015D08EB62
:1047B000050005E020480023025D08EB050015E038
:1047C0000A30641E00F0CCF9761C4E45FFF464AF4D
:1047D0000398FBF73DFF7F1C5745FFF455AFBDE83D
:1047E000FF9F15480022035D08EB05000021E7E765
:1047F0001148025D1038641E0023015D08EB0500BE
:1048000017E00D48035D641E0021025D08EB050002
:104810000FE00948035D641E0022015D08EB0500FE
:1048200007E00548035D641E20448278417808EB68
:1048300005000A30C6E70000140000202DE9FF5FE4
:10484000DDE90F4B254604F108070BF1120A9AE047
:10485000FEF7CAF84FF00708BD4230D9A5F10A09A2
:1048600026462AE0B9EB060029D4ABEB04018842C6
:1048700002D3A8F101081FE0A64201D0019900E08F
:104880000399082918D2DFE801F017463C322820A6
:104890000C0459492044002311F80810A8F101081C
:1048A00037E055492044002311F80820A8F10108F9
:1048B00025E000BF00F054F9761CBE42D2D34FF081
:1048C0000708264604F1070957E04B492044002217
:1048D00011F80830A8F1010811E0474920440023ED
:1048E00011F80820A8F1010841444978E2E742495B
:1048F000204411F80830A8F1010841444A78002109
:10490000D8E73D49204411F80830A8F10108414496
:1049100049780022CEE73849204411F80830A8F140
:10492000010841448A784978C4E7A81B27D4584530
:1049300002D3A8F101081FE0A64201D0009900E0CF
:104940000299082918D2DFE801F017040C232B384C
:10495000424C29492044002311F80810A8F101080D
:104960003DE025492044002311F80820A8F1010862
:104970002BE000BF00F0F4F8761C4E45D5D30E981E
:10498000FBF766FE6D1C5545FFF462AFBDE8FF9F67
:1049900019492044002211F80830A8F1010814E058
:1049A0001549204401F1100311F80820A8F101086D
:1049B00003EB080100234978DCE70F49204411F894
:1049C0000830A8F1010841444A780021D2E70A4999
:1049D000204411F80830A8F1010841444978002228
:1049E000C8E70549204411F80830A8F101084144FE
:1049F0008A784978BEE70000140000202DE9FF5FA7
:104A0000DDE90F5B2F460BF1080A76E0FDF7ECFFBE
:104A100007242E4605F1080869E000BFB7EB060938
:104A200067D4ABEB0501894501D3641E5EE0AE425D
:104A300001D0009800E00298082813D2DFE800F0C7
:104A400012040A161C242C3444480023015D09EB8F
:104A5000050027E041480023025D09EB050019E04D
:104A600000F07EF8AE4226D0019825E03B480022B7
:104A7000035D09EB05000DE038480023025D20448A
:104A8000417809EB0500EBE73448035D20444278A8
:104A900009EB05000021E3E73048035D204441783D
:104AA00009EB05000022DBE72C48015D09EB05005E
:104AB0000B461A46D4E70398082817D2DFE800F01F
:104AC00016040B2128323B44244800231A46015D7A
:104AD00009EB050005E021480023025D09EB050014
:104AE00014E00830B4F1010400F03AF8761C4645B1
:104AF00094D30E98FBF7ACFD7F1C574586D3BDE8D9
:104B0000FF9F16480022035D09EB05000021E8E73E
:104B10001248025D1038641E20440023417809EBDE
:104B2000050019E00D48035D641E20440021427811
:104B300009EB050010E00948035D641E20440022D3
:104B4000417809EB050007E00448035D641E20443A
:104B50008278417809EB05000830C5E71400002091
:104B600070B51D461646044600F000FC314620464E
:104B700000F098FB29462046BDE8704000F02EBBAF
:104B800038B5284C284D0121E06800900023227898
:104B90000846FFF7BDFB01212846FBF713FF90B93C
:104BA0001420FBF755FD01212846FBF70BFF50B9F8
:104BB0002178052901D0891E217001212846FBF7A3
:104BC00001FF0028F9D002212846FBF7FBFE90B92F
:104BD0001420FBF73DFD02212846FBF7F3FE50B9F8
:104BE0002178642901D0891C217002212846FBF715
:104BF000E9FE0028F9D004212846FBF7E3FE00284F
:104C0000C1D11420FBF724FD04212846FBF7DAFE6E
:104C10000028B8D104212846FBF7D4FE0028F9D09B
:104C200038BD0000000000200008014038B52A4CC3
:104C30002A4D00BFD4E90330184400900221627865
:104C40000846FFF765FB01212846FBF7BBFE90B93C
:104C50001420FBF7FDFC01212846FBF7B3FE50B9F9
:104C60006178052901D0891E617001212846FBF772
:104C7000A9FE0028F9D002212846FBF7A3FE90B92F
:104C80001420FBF7E5FC02212846FBF79BFE50B9F8
:104C90006178C82901D0891C617002212846FBF780
:104CA00091FE0028F9D004212846FBF78BFE00284E
:104CB000C0D11420FBF7CCFC04212846FBF782FE70
:104CC0000028B7D104212846FBF77CFE0028F9D044
:104CD000BDE83840FBF79ABB000000200008014007
:104CE00010B5FDF781FE00F009F800F059F8FFF764
:104CF00047FFBDE81040FFF799BF000070B5FCF713
:104D000073FB254C254D01212846FBF75BFE90B92E
:104D10001420FBF79DFC01212846FBF753FE50B9F8
:104D2000E068401CE060FCF75FFB01212846FBF7D0
:104D300049FE0028F9D002212846FBF743FEA0B91E
:104D40001420FBF785FC02212846FBF73BFE60B9E7
:104D5000E068012801D0401EE060FCF745FB02211D
:104D60002846FBF72FFE0028F9D004212846FBF740
:104D700029FE0028C7D11420FBF76AFC042128462D
:104D8000FBF720FE0028BED104212846FBF71AFEBF
:104D90000028F9D070BD000000000020000801408C
:104DA00070B5FCF739FB224D224C01212046FBF760
:104DB00009FE90B91420FBF74BFC01212046FBF7BC
:104DC00001FE50B92869401C2861FCF725FB012130
:104DD0002046FBF7F7FD0028F9D002212046FBF71B
:104DE000F1FDA0B91420FBF733FC02212046FBF7AC
:104DF000E9FD60B92869012801D0401E2861FCF74F
:104E00000BFB02212046FBF7DDFD0028F9D0042131
:104E10002046FBF7D7FD0028C7D11420FBF718FC6C
:104E200004212046FBF7CEFD0028BED170BD000056
:104E30000000002000080140FBF7D0BD30B58FB066
:104E400028216846FBF785F914210AA8FBF781F9A8
:104E500001210804CDE900100024029402250491E8
:104E6000CDE907504FF4E01009906846FBF73AFF90
:104E700008B172B6FEE70F20CDE90A054FF4806055
:104E8000CDE90C4002210AA80E94FBF73FFE002852
:104E900001D072B6FEE70FB030BD7047054A6423FB
:104EA000D070080A50719171082202490248FCF73B
:104EB00041BA00001C000020BC00002070B5044670
:104EC00000680169E26821F44051114301612169E0
:104ED000A0680843616908432168CA6841F20C630D
:104EE0009A430243CA6020684169A26921F4407173
:104EF000114341611E492068884202D1FBF7ACFE94
:104F000001E0FBF799FE00EBC00101EB00126068C5
:104F100064218000B2FBF0F3B3FBF1F36FF01806ED
:104F20007343B2FBF0F5B2FBF0F605EB83053223D9
:104F300003EB0515B5FBF1F5B6FBF1F605F0F00551
:104F400005EB0615B2FBF0F6B2FBF0F0B0FBF1F0AA
:104F50006FF01802504306EB800003EB0010B0FB2B
:104F6000F1F0216800F00F002844886070BD000057
:104F7000003801402DE9F041984617460E46044698
:104F8000069D1DE0681C1BD02DB1FBF721FDA0EB99
:104F90000800A84214D92068C16821F4D071C1600A
:104FA0002068416921F001014161202084F8390025
:104FB00084F83A00002084F838000320BDE8F0812E
:104FC0002068006836EA000004D00020B842D9D03A
:104FD0000020F3E70120F9E7FEE70907090E0028A2
:104FE00004DB00F1E02080F80014704700F00F00AF
:104FF00000F1E02080F8141D704702E008C8121F7D
:1050000008C1002AFAD170477047002001E001C1B1
:10501000121F002AFBD1704708B5FBF7E7FCFFF72A
:105020000DFFFDF705FD6948416941F0010141614E
:105030004069002200F00100009011460D20FBF7AE
:1050400033FD0D20FBF722FDFDF71EFD6148604991
:10505000002401604FF41651C0E901140C21C46012
:10506000C0E904418461C461FCF7FAF808B172B682
:10507000FEE7584941F614624031A1F19800FCF76F
:105080006DF855487E210170FF2141700621817025
:105090000471EF21C171FBF7B5F84FF4FA642046B3
:1050A000FBF7D6FA1E210620FFF7F8FEA046641093
:1050B00040F6B83640F6C41740F2DC594FF4C86ADF
:1050C00040F2A46B5FEA6405FCF7C4F93046FBF7D5
:1050D000BFFAFCF753FD3846FBF7BAFAFDF73AFA88
:1050E0003046FBF7B5FAFDF7DDFA3846FBF7B0FAC4
:1050F000FDF70EFB4846FBF7ABFAFDF75FFB5046AA
:10510000FBF7A6FAFDF78CFB5846FBF7A1FAFDF773
:10511000DDFB4FF4E160FBF79BFAFDF711FC40F279
:105120006C70FBF795FAFCF7C3F94046FBF790FA71
:10513000FCF7F0F92046FBF78BFAFCF735FA30461E
:10514000FBF786FAFCF782FA2846FBF781FAFCF7B0
:10515000DFFA2046FBF77CFAFCF73AFB2846FBF720
:1051600077FAFCF793FB2046FBF772FAFCF7DEFBBD
:105170002046FBF76DFAFCF737FC2046FBF768FA90
:10518000FCF7A2FC2046FBF763FAFCF77BFD204608
:10519000FBF75EFAFCF7B4FD2046FBF759FAFCF783
:1051A0001DFE4FF42F70FBF753FAFCF7A1FEFCF73E
:1051B0002BFFFCF7B3FFFDF751F8FDF7F1F8FDF712
:1051C0005DF9FCF7FDFCFDF7FFF97DE700100240FB
:1051D00000380140BC0000201C00002030B5C0EBAE
:1051E000001200232E481C460A32D5185B1C445579
:1051F000052BFADB0C064FF0800302D5F024845413
:1052000000E083544C0606D5845C44F007048454C3
:105210008418637003E0835C43F0040383548B06BB
:1052200000EB02035C7802D544F03C0401E044F05A
:1052300020045C70CB0600EB02035C7844F00104B0
:105240005C7001D5E0249C700B0700EB02039C7896
:1052500002D544F00F0401E044F008049C704B07B1
:1052600001D5782300E040238418E3708B0700EB1E
:105270000203DC7805D544F00304DC70C0241C7103
:1052800002E044F00204DC701044C907017902D046
:1052900041F01E0101E041F01001017130BD00003C
:1052A000FC00002030B5C0EB001200232E481C4645
:1052B000521DD5185B1C4455052BFADB0C064FF02C
:1052C000800302D5F024845400E083544C0606D5B4
:1052D000845C44F0070484548418637003E0835CA6
:1052E00043F0040383548B0600EB02035C7802D581
:1052F00044F03C0401E044F020045C70CB0600EB79
:1053000002035C7844F001045C7001D5E0249C70D9
:105310000B0700EB02039C7802D544F00F0401E078
:1053200044F008049C704B0701D5782300E040232B
:105330008418E3708B0700EB0203DC7805D544F09A
:105340000304DC70C0241C7102E044F00204DC7031
:105350001044C907017902D041F01E0101E041F07B
:105360001001017130BD0000FC00002030B5C0EB21
:10537000001200232D481C46D5185B1C4455052BF4
:10538000FADB0C064FF0800302D5F024845400E0D1
:1053900083544C0606D5845C44F007048454841876
:1053A000637003E0835C43F0040383548B0600EBDB
:1053B00002035C7802D544F03C0401E044F0200490
:1053C0005C70CB0600EB02035C7844F001045C7077
:1053D00001D5E0249C700B0700EB02039C7802D5FA
:1053E00044F00F0401E044F008049C704B0701D521
:1053F000782300E040238418E3708B0700EB02035E
:10540000DC7805D544F00304DC70C0241C7102E094
:1054100044F00204DC701044C907017902D041F065
:105420001E0101E041F01001017130BDFC000020BF
:105430000000000000000000010203040607080944
:10544000000000000102030468540008000000206E
:1054500054000000FA4F0008BC540008540000201B
:10546000342300000A500008153232FE0A1E64FE82
:1054700000020000290000000C00000001030508E4
:105480000A3250FE00000000000000000103050881
:105490000A141E28323C46505A646EFE0100000079
:1054A00002000000030000000400000001000000F2
:0C54B00010000000000000000024F400C8
:04000005080000ED02
:00000001FF
